S01900004D6F6F644C696768745F54656D706C6174652E733337B9
S113000000400020710100009D0100009D010000DE
S11300109D0100009D0100009D0100009D01000064
S11300209D0100009D0100009D0100009D01000054
S11300309D0100009C0100009D0100009D01000045
S11300409D010000C92C00007D2B00009D010000D3
S11300509D010000912F00009D0100009D01000002
S11300609D010000952C0000A52D00009D010000BD
S11300709D0100009D0100009D0100009D01000004
S11300809D0100009D0100004D2500009D01000020
S11300909D0100009D0100009D0100009D010000E4
S11300A0D92200009D0100009D0100009D01000077
S11300B09D0100009D0100009D01000010B5054C4C
S11300C0237833B9044B13B10448AFF30080012300
S11300D0237010BD2802002000000000A83C00008E
S11300E008B5034B1BB103490348AFF3008008BDB7
S11300F0000000002C020020A83C0000154B002B3F
S113010008BF134B9D46A3F5803A00218B460F464A
S11301101348144A121A03F05FFA0F4B002B00D055
S113012098470E4B002B00D0984700200021040074
S11301300D000D48002802D00C48AFF3008003F0F6
S113014027FA2000290002F02DFC03F00DFA00BF6D
S11301500000080000400020000000000000000033
S113016028020020DC020020000000000000000043
S1130170064880470649074A074B9A42BEBF51F8D2
S1130180040B42F8040BF8E7FFF7B8FFF102000094
S1130190B43C00000000002028020020FEE700BF5D
S11301A080B400AF034BDB6C1B0EDBB21846BD46BC
S11301B080BC7047B081E00F80B582B000AF00F022
S11301C01FF87860074B5B6803F00F037A6822FA24
S11301D003F37B60044A7B6813607B681846083726
S11301E0BD4680BD00800C400800002080B400AFF4
S11301F0024B1846BD4680BC704700BF0048E8016A
S113020080B582B000AF2F4BDB6A03F47053B3F5B3
S1130210805F0AD0B3F5005F03D0B3F5006F08D058
S11302200BE0294B1B687B6047E04FF400437B6085
S113023043E0264B1B687B603FE0224BDB6803F402
S1130240E063B3F5007F1BD0B3F5007F05D8002B26
S113025024D0B3F5807F16D02BE0B3F5806F09D09E
S1130260B3F5A06F03D0B3F5407F06D021E0184B5F
S11302707B6021E0174B7B601EE0174B7B601BE02B
S1130280164B7B6018E0FFF78BFF0346122B02D955
S1130290134B7B6010E0134B7B600DE0FFF780FF96
S11302A00346122B02D9104B7B6005E00F4B7B6099
S11302B002E000237B6000BF00BF7B68184608375C
S11302C0BD4680BD00800C400400002000000020DA
S11302D0003FAB01406F4001809FD500C0D8A7000C
S11302E040B56400C0CF6A00804F120040420F0046
S11302F080B400AF034B044A9A6000BFBD4680BC83
S1130300704700BF00ED00E00000000080B400AFC3
S11303104FF400431846BD4680BC704780B400AF1C
S1130320024B1B681846BD4680BC70470400002081
S113033080B483B000AF0346FB71FB79002B03D07C
S1130340054B01221A6602E0034B00221A6600BF25
S11303500C37BD4680BC704700A0084080B483B011
S113036000AF786000BF054B5A6E7B681340002BCA
S1130370F9D100BF0C37BD4680BC704700A00840CF
S113038080B483B000AF7860054B9A6A7B68DB4326
S1130390034913408B6200BF0C37BD4680BC7047D5
S11303A000A0084080B500AF00224FF0FF310020CC
S11303B001F064FA00224FF0FF31012001F05EFAEF
S11303C000224FF0FF31022001F058FA00224FF0D2
S11303D0FF31032001F052FA0022FF21002001F036
S11303E0B1FA0022FF21012001F0ACFA0022FF2122
S11303F0022001F0A7FA0022FF21032001F0A2FA53
S113040000BF80BD80B500AF00220A49002001F082
S113041035FA00220849012001F030FA0022064989
S1130420022001F02BFA00220349032001F026FAEE
S113043000BF80BD00CCCC7EFCFEFF7F80B582B0C7
S113044000AF0346FB7101211B4800F077FC032138
S11304501A4800F023FE8021194800F09BFB00207D
S113046000F0BEFE0121174800F068FC4FF0FF3099
S1130470FFF786FF144801F005F9012140F2FF302F
S113048001F060F9FB79002B0CD0002001F0BEFADA
S11304904FF4803001F034F90C4BDB6F0B4A43F01E
S11304A00803D367FFF77EFF4FF0FF30FFF756FFD7
S11304B000BF0837BD4680BDD0233E0002001E00A9
S11304C080002A0000262C00E83A000000800C403E
S11304D080B58AB000AF78607B6842F20E729342B6
S11304E002DD42F20F737B607B6813F57A7F01DCD7
S11304F03D4B7B607B68002B06DA786803F030F8AC
S113050078600123BB6101E00023BB614FF0FF3041
S1130510FFF724FF0120FFF70BFF00F06DF8012324
S1130520FB6100233B6254E07A68FB6992FBF3F2BF
S11305302E4B83FB02139910D317C91A0B469B0049
S11305400B445B00D11A0B46FB82BB69012B04D11F
S11305503B6A032B01D11023FB82FB8A244A32F825
S11305601330BB8200237B6227E022493A6A134698
S1130570DB009B1A5B00CA187B6A1344CB331B78DD
S11305803B611C493A6A1346DB009B1A5B00CA189C
S11305907B6A1344C4331B78FB60BA8A7B6A42FAD1
S11305A003F303F00103002B04D001223969F86836
S11305B001F0E8F87B6A01337B627B6A062BD4DDA9
S11305C0FA6913469B0013445B00FB613B6A0133E9
S11305D03B623B6A032BA7DD0020FFF7A9FE00BFA7
S11305E02837BD4680BD00BF19FCFFFF67666666FD
S11305F0C43A00000C38000080B500AF00224FF070
S11306000041002001F03AF900224FF0004101209E
S113061001F034F900224FF00041022001F02EF9DC
S113062000224FF00041032001F028F9002252215A
S1130630002001F087F90022FB21012001F082F95A
S11306400022FB21022001F07DF90022FB2103207E
S113065001F078F900BF80BD80B58AB000AF786042
S1130660786802F0CEFF0346BB6100233B624FF083
S1130670FF30FFF773FE0120FFF75AFEFFF7C2FEBB
S113068000233B6245E03A6ABB699A4203DA7B681D
S11306901B787B6201E020237B627B6A203B7B62C8
S11306A0214A7B6A32F81330FB820023FB6127E086
S11306B01E493A6A1346DB009B1A9B00CA18FB6961
S11306C013440E331B783B6118493A6A1346DB0026
S11306D09B1A9B00CA18FB6913441B78FB60FA8AB7
S11306E0FB6942FA03F303F00103002B05D0FB6816
S11306F039690122184601F045F8FB690133FB61B1
S1130700FB690D2BD4DD7B6801337B603B6A0133CD
S11307103B623B6A062BB6DD0020FFF709FE00BFF3
S11307202837BD4680BD00BF0C3A00000C380000DD
S113073080B487B000AFF860B9607A60FB6803F1F9
S11307400473DA00BB6813449B007B617B697A689D
S11307501A6000BF1C37BD4680BC704780B485B0AA
S113076000AFF860B9607A60FB681A68BB68DB4365
S11307701A407B681A43FB681A6000BF1437BD46F1
S113078080BC704780B582B000AF786039607B6808
S11307901C4A934202D07B681B4A934200BF3B68C9
S11307A01B78DA073B685B789B0713431A463B6860
S11307B05B681B0613433A68127A120213433A68C1
S11307C0527A12011A437B681A603B689B7A1B07B2
S11307D01A463B68DB7A1B041A433B68DB681B023E
S11307E0134343F0807343F0B0037A68536078682E
S11307F03B681B7C1A460021FFF79AFF00BF0837AD
S1130800BD4680BD001000400014004080B582B099
S113081000AF78600B46FB707B68094A934202D0B4
S11308207B68084A934200BF7B680433FA78072147
S11308301846FFF793FF00BF0837BD4680BD00BFD1
S1130840001000400014004080B483B000AF786012
S11308507B68094A934202D07B68084A934200BFEE
S11308607B681B6823F001027B681A6000BF0C37A9
S1130870BD4680BC704700BF00100040001400401B
S113088080B483B000AF78607B68094A934202D099
S11308907B68084A934200BF7B681B6843F00102EF
S11308A07B681A6000BF0C37BD4680BC704700BF30
S11308B0001000400014004080B487B000AFF8601E
S11308C0B9607A60FB6803F10473DA00BB6813440F
S11308D09B007B617B697A681A6000BF1C37BD4648
S11308E080BC704780B485B000AF786039607B68A5
S11308F003F10473DA003B6813449B00FB60FB685C
S11309001B6818461437BD4680BC704780B485B058
S113091000AF78607B68002B03D07B68B3F5004F91
S113092000BF7B68B3FA83F3DBB2C3F11F03FB6040
S1130930FB6818461437BD4680BC704780B483B04A
S113094000AF044B7B607B6818460C37BD4680BC07
S1130950704700BF809FD50080B582B000AF0D48BE
S113096000F026FB0346FB70FB78072B05D0092B10
S113097007D1FFF745FC786006E0FFF7DFFF7860FA
S113098002E000237B6000BF7B6818460837BD4641
S113099080BD00BF06000E0080B485B000AF786053
S11309A03960194B5B6803F00703FB60FB68012B9C
S11309B002D80023FB7202E00123FB7200BF7B68B4
S11309C0124A93420BD87B68114A934207D9FB7AA7
S11309D0002B01D0032300E00123FB6006E0FB7A37
S11309E0002B01D0022300E00023FB60064B5B6870
S11309F023F007020449FB6813434B6000BF14371C
S1130A00BD4680BC704700BF00000C400048E801B0
S1130A100024F40080B582B000AF0E4BDB6B002BDA
S1130A2014BF01230023FB710A4B41F67132DA63D0
S1130A30FFF7DCFB034600211846FFF7ADFFFB7907
S1130A40002B02D0034B0022DA6300BF0837BD46F7
S1130A5080BD00BF00000C4080B584B000AF78605A
S1130A6039600C4BDB6B002B14BF01230023FB7399
S1130A70084B41F67132DA6339687868FFF78CFF06
S1130A80FB7B002B02D0034B0022DA6300BF10373C
S1130A90BD4680BD00000C4080B584B000AF7860D6
S1130AA00023BB607B68254A934203D0244A9342C7
S1130AB000D000E000BF786800F07AFA0346FB60DB
S1130AC07B681E4A934203D01D4A934206D00CE031
S1130AD01C4B9B6A03F00303FB6006E0194B9B6A03
S1130AE09B0803F00303FB6000BFFB68032B1CD8C7
S1130AF001A252F823F000BF250B0000090B0000EF
S1130B00110B0000190B0000FFF700FCB8600FE0A8
S1130B10FFF704FCB8600BE0FFF74EFB03465B08ED
S1130B20BB6005E00023BB6002E00023BB6000BFA4
S1130B30BB6818461037BD4680BD00BF02001E00CA
S1130B400300200000800C4080B483B000AF7860C4
S1130B50094B5B6D03F00103002B07D100BF064B6B
S1130B601A6D7B681340002BF9D100E000BF0C37ED
S1130B70BD4680BC704700BF00800C4080B400AF0D
S1130B8000BFBD4680BC704780B400AF00BFBD4607
S1130B9080BC704790B585B000AF786039607B68E1
S1130BA01B0903F00F03FB60FB68043B052B00F2F9
S1130BB0B38001A252F823F0D10B0000190D0000FC
S1130BC0190D0000F90B0000330C0000C50C0000E7
S1130BD03B68002B03D03B68B3F5007F00BF386847
S1130BE0FFF794FE38604F4B9B6823F00F024D498A
S1130BF03B6813438B6090E03B68002B03D03B6859
S1130C00B3F5007F00BFFFF705FF3868FFF77EFEEE
S1130C103860444B5B6823F00F0242493B6813433E
S1130C204B60FFF7C9FAB8600021B868FFF714FFFA
S1130C3073E07B683C4A934216D03C4A934224D0EA
S1130C403B4A934200D03CE00420FFF77DFF386824
S1130C50FFF75CFE3860334B9B6E23F00F02314983
S1130C603B6813438B662CE00420FFF76DFF386864
S1130C70FFF74CFE38602B4B9B6E23F0F0023B6871
S1130C801B01284913438B661BE03B680F2B02D9D9
S1130C903B68802B00BF0420FFF756FF3868FFF73E
S1130CA035FE38601F4B9B6E23F440741020FFF711
S1130CB02DFE02463B689B1A1B021A4A2343936685
S1130CC000BF2AE07B681B4A934203D01A4A93422E
S1130CD010D020E04020FFF737FF3868FFF716FEFA
S1130CE03860104B1B6F23F003020E493B6813431B
S1130CF00B6710E04020FFF727FF3868FFF706FE78
S1130D003860084B1B6F23F030023B681B01054918
S1130D1013430B6700BF00E000BF00BF1437BD469C
S1130D2090BD00BF00800C408016160080002A0091
S1130D308006120090071A0090171C0080B586B038
S1130D4000AF78600B46FB7000233B617B681B0A95
S1130D5003F00F03013B092B3ED801A252F823F004
S1130D608F0D0000950D0000890D0000D90D0000C5
S1130D70D90D00009B0D0000A50D0000D90D000049
S1130D80D90D0000AF0D0000154B7B6112E0154B2F
S1130D907B610FE0144B7B610CE0144B7B610123FE
S1130DA03B6107E0124B7B6110233B6102E0114B76
S1130DB07B6100BF7B681B0B03F01F03FB603B6977
S1130DC0002B02D03869FFF7BFFEFB781A46F9689A
S1130DD07869FFF771FD00E000BF1837BD4680BD9C
S1130DE040800C4008800C4044800C4058800C40EB
S1130DF060800C4078800C4090B585B000AF78607E
S1130E007B6803F47813B3F5B01F5CD0B3F5B01F5F
S1130E1017D8B3F5802F34D0B3F5802F05D8002B25
S1130E202BD0B3F5003F38D0B3E0B3F5801F00F00A
S1130E30A680B3F5901F39D0B3F5602F00F09B80E6
S1130E40A7E0B3F5001F76D0B3F5001F0AD8B3F5B9
S1130E50E01F00F08280B3F5F01F22D0B3F5D01F5D
S1130E606ED096E0B3F5301F4ED0B3F5781F00F086
S1130E708A80B3F5281F34D08BE0FFF7C1F9F860FE
S1130E808AE0FFF7BDF9F860464B9B6803F00F0357
S1130E90FA6822FA03F3FB607EE0FFF78DF9F8604D
S1130EA07AE04148FFF7F8FDF86075E03E48FFF747
S1130EB0F3FDF8603B4B9B6E03F00F03FA6822FAD4
S1130EC003F3FB6068E03848FFF7E6FDF860354B54
S1130ED09B6E1B0903F00F03FA6822FA03F3FB600D
S1130EE05AE03148FFF7D8FDF8602E4B9B6E1B0A81
S1130EF003F003041020FFF709FD03462344FA68B6
S1130F0022FA03F3FB6047E02748FFF7C5FDF860CA
S1130F10244B9B6E1B0A03F00303FA6822FA03F3C3
S1130F20FB60204BDB6F03F007030133FA68B2FB6D
S1130F30F3F3FB6030E01D48FFF7AEFDF8602BE0F3
S1130F401A48FFF7A9FDF860164B1B6F03F0030363
S1130F50FA6822FA03F3FB601EE01448FFF79CFDD5
S1130F60F860104B1B6F1B0903F00303FA6822FAA5
S1130F7003F3FB6010E0FFF7EFFCF8600CE0FFF711
S1130F80DDFCF86008E0FFF717F903465B08FB6037
S1130F9002E00023FB6000BFFB6818461437BD461F
S1130FA090BD00BF00800C4002001E000300200022
S1130FB080B485B000AF78600123FB737B6803F0D5
S1130FC00F03BB60BB68013B052B5BD801A252F841
S1130FD023F000BFED0F00002310000051100000AB
S1130FE085100000851000007F1000002A4BDB6A8A
S1130FF003F47053B3F5805F09D0B3F5005F03D0F9
S1131000B3F5006F06D008E00223FB7308E0032366
S1131010FB7305E00423FB7302E00523FB7300BFAD
S113102033E01D4B9B6A03F00303022B06D0032B12
S113103007D0012B08D10323FB7308E00223FB73C1
S113104005E00623FB7302E00123FB7300BF1CE0F1
S1131050114B9B6A03F00C03082B06D00C2B07D012
S1131060042B08D10323FB7308E00223FB7305E080
S11310700623FB7302E00123FB7300BF05E0072393
S1131080FB7302E00023FB7300BFFB7B184614379D
S1131090BD4680BC704700BF00800C4080B588B05E
S11310A000AF78600B46FB700323FB610323FB76E0
S11310B07B6803F00F033B613B69012B05D0012BD7
S11310C0C0F08180032B7ED839E0FB78023B032BF0
S11310D07BD801A252F823F0E9100000F3100000BD
S11310E0FD100000071100000423FB610023FB76C0
S11310F00EE00323FB610123FB7609E00223FB617D
S11311000223FB7604E00123FB610323FB7600BF8B
S1131110FB7E01220121184600F080F8FFF77AFCDB
S1131120FFF72CFD2C4AFB695362FFF745F8F86082
S11311300021F868FFF790FCFFF726FD48E0FB78F4
S1131140013B052B43D801A252F823F0651100009E
S11311506B1100007B110000CF110000CF110000C3
S11311608B11000000237B6117E001220121002084
S113117000F054F802237B610FE0012201210120D9
S113118000F04CF801237B6107E00122022113489F
S1131190FFF792FB03237B6100BF3B69022B08D15D
S11311A00D4B9B6A23F003020B497B6913438B624B
S11311B00EE0094B9B6A23F00C027B699B000649F5
S11311C013438B6204E000BF02E000BF00E000BFF5
S11311D02037BD4680BD00BF00800C4040800C40DD
S11311E080B483B000AF78600B4B9B6D03F00403B5
S11311F0002B0CD17B6803F007037B60064BDB6F8D
S113120023F0070204497B681343CB6700E000BF67
S11312100C37BD4680BC704700800C4080B586B05A
S113122000AF0346FB710B46BB7113467B71FB7920
S1131230042B48D801A252F823F000BF8912000001
S11312407B1200005F120000511200006D120000BA
S113125001233B610223FB6001237B611DE0042326
S11312603B610823FB6003237B6116E010233B6191
S11312702023FB6005237B610FE040233B61802337
S1131280FB6007237B6108E04FF480733B614FF4FC
S11312900073FB6009237B6100BFBB79002B0ED078
S11312A00B4A3B6913627B79002B0DD000BF79692F
S11312B00848FFF717FB0346002BF8D004E0044A64
S11312C0FB68136200E000BF1837BD4680BD00BF55
S11312D000800C402C800C4080B483B000AFEFF34E
S11312E010833B603B687B6072B67B6818460C37A2
S11312F0BD4680BC704780B483B000AF78607B6823
S1131300002B00D162B600BF0C37BD4680BC7047CD
S113131080B487B000AFF860B9607A60FB6803F10D
S11313200473DA00BB6813449B007B617B697A68B1
S11313301A6000BF1C37BD4680BC704780B485B0BE
S113134000AFF860B9607A60FB681A68BB68DB4379
S11313501A407B681A43FB681A6000BF1437BD4605
S113136080BC704780B483B000AF7860044A7B6867
S1131370C2F81C3100BF0C37BD4680BC704700BFAB
S11313800060004080B483B000AF03463960FB7155
S1131390FB79002B0DD0FB79012B0AD0FB79022BB2
S11313A007D0FB79032B04D0FB79042B01D0FB7904
S11313B0052B01223B6802FA03F30749FA79184620
S11313C01346DB0013449B000B441433186000BF26
S11313D00C37BD4680BC70470060004080B483B0C9
S11313E000AF03463960FB71FB79002B0DD0FB790C
S11313F0012B0AD0FB79022B07D0FB79032B04D0F5
S1131400FB79042B01D0FB79052B01223B6802FAFE
S113141003F30749FA7918461346DB0013449B008B
S11314200B441033186000BF0C37BD4680BC7047B6
S11314300060004080B586B000AFB9607A601A469B
S11314400346FB731346BB7300237B61FB7B002BBA
S11314500DD0FB7B012B0AD0FB7B022B07D0FB7B3F
S1131460032B04D0FB7B042B01D0FB7B052B7B6877
S1131470072B0ED87B689B00072202FA03F1FA7B44
S11314807B689B0002FA03F31A461A48FFF756FFDB
S113149010E07B68083B7B617B699B00072202FAB2
S11314A003F1FA7B7B699B0002FA03F31A461248A4
S11314B0FFF744FFBB7B1A4679681048FFF728FF03
S11314C097F820301A4679680D48FFF721FF01226A
S11314D07B6802FA03F31846FFF744FF97F82430B9
S11314E01A4679680748FFF713FF00BF1837BD464F
S11314F080BD00BF006100400461004008610040FD
S11315000C6100401061004080B584B000AFB96048
S11315107B600346FB731346BB73FB7B002B0DD030
S1131520FB7B012B0AD0FB7B022B07D0FB7B032B1D
S113153004D0FB7B042B01D0FB7B052BBB7B002B56
S11315400DD07B68002B05D0FB7BB9681846FFF7EC
S113155045FF04E0FB7BB9681846FFF713FFBB683F
S1131560072B20D82D49FA7B1346DB0013449B003C
S11315700B4404331A68BB689B000F2101FA03F380
S1131580DB431340B97BBA68920001FA02F21146B8
S11315902248FA7B19431346DB0013449B0003449F
S11315A00433196025E01D49FA7B1346DB0013441C
S11315B09B000B4408331A68BB6803F18043083B63
S11315C09B000F2101FA03F3DB4302EA0301BA7B18
S11315D0BB6803F18043083B9B0002FA03F30F4806
S11315E0FA7B19431346DB0013449B00034408337E
S11315F01960BB7B002B0DD17B68002B05D0FB7BD6
S1131600B9681846FFF7EAFE04E0FB7BB9681846A0
S1131610FFF7B8FE00BF1037BD4680BD0060004034
S113162080B483B000AF0346FB71FB79002B06D076
S1131630084B1B68074A43F00103136005E0054BA0
S11316401B68044A23F00103136000BF0C37BD4636
S113165080BC704700A0084080B487B000AFF86039
S1131660B9607A60FB6803F10473DA00BB68134461
S11316709B007B617B697A681A6000BF1C37BD469A
S113168080BC704780B584B000AF78601B4B5B684A
S1131690FB600020FFF7C4FFFB6823F4C03323F092
S11316A01F03FB607B685B781A46FB681343FB608F
S11316B07B689B781A46FB681343FB607B68DB7886
S11316C01A46FB681343FB607B685B68FA68134344
S11316D0FB607B681B891A46FB681343FB60074A5F
S11316E0FB6853607B681B78002B02D00120FFF756
S11316F097FF00BF1037BD4680BD00BF00A0084063
S113170080B485B000AF78600D4B5B68FB60FB680C
S113171023F48033FB607B68002B08D0B3F5803F53
S113172000D005E0FB6843F48033FB6000E000BFB9
S1131730034AFB68536000BF1437BD4680BC704742
S113174000A0084080B483B000AF03460A46FB8083
S113175013467B717B79002B06D0094B9A68FB8872
S1131760074913438B6006E0054B9A68FB88DB430B
S1131770034913408B6000BF0C37BD4680BC7047E3
S113178000A0084080B584B000AFF860B96013468B
S1131790FB71FB68032B5BD801A252F823F000BF56
S11317A0B1170000D9170000011800002918000023
S11317B0BB681F2B06DCBB68FA7919462748FFF77C
S11317C04BFF46E0BB68203BBB60BB68FA79194617
S11317D02348FFF741FF3CE0BB681F2B06DCBB68D6
S11317E0FA7919461F48FFF737FF32E0BB68203B00
S11317F0BB60BB68FA7919461B48FFF72DFF28E048
S1131800BB681F2B06DCBB68FA7919461748FFF73B
S113181023FF1EE0BB68203BBB60BB68FA79194616
S11318201348FFF719FF14E0BB681F2B06DCBB68E5
S1131830FA7919460F48FFF70FFF0AE0BB68203B0F
S1131840BB60BB68FA7919460B48FFF705FF00E057
S113185000BF00BF1037BD4680BD00BF40A0084098
S113186050A0084044A0084054A0084048A00840A4
S113187058A008404CA008405CA0084080B487B041
S113188000AFF860B9607A60FB68032B52D801A2FC
S113189052F823F0A5180000C9180000ED18000044
S11318A011190000264B1B6C7B61BB68DB437A6912
S11318B013407B61BA687B6813407A6913437B6188
S11318C01F4A7B69136436E01D4B5B6C7B61BB680C
S11318D0DB437A6913407B61BA687B6813407A6999
S11318E013437B61164A7B69536424E0144B9B6C5D
S11318F07B61BB68DB437A6913407B61BA687B68B0
S113190013407A6913437B610D4A7B69936412E047
S11319100B4BDB6C7B61BB68DB437A6913407B61F7
S1131920BA687B6813407A6913437B61044A7B6914
S1131930D36400E000BF00BF1C37BD4680BC7047C5
S113194000A0084080B487B000AFF860B9607A6046
S1131950FB68032B52D801A252F823F06D19000042
S113196091190000B5190000D9190000264B1B6D10
S11319707B61BB68DB437A6913407B61BA687B682F
S113198013407A6913437B611F4A7B69136536E010
S11319901D4B5B6D7B61BB68DB437A6913407B61E4
S11319A0BA687B6813407A6913437B61164A7B6982
S11319B0536524E0144B9B6D7B61BB68DB437A6900
S11319C013407B61BA687B6813407A6913437B6177
S11319D00D4A7B69936512E00B4BDB6D7B61BB6841
S11319E0DB437A6913407B61BA687B6813407A6988
S11319F013437B61044A7B69D36500E000BF00BFE9
S1131A001C37BD4680BC704700A0084080B483B03A
S1131A1000AF7860064B5B6823F4E01204497B68EE
S1131A2013434B6000BF0C37BD4680BC704700BFFA
S1131A3000A0084080B483B000AF786039607B6850
S1131A401B6C03F00103002B07D100BF7B685A6CA9
S1131A503B681340002BF9D100E000BF0C37BD46B2
S1131A6080BC704780B586B000AFF860B9607A601A
S1131A70BB68002B10D1FB68164A934202D1164B67
S1131A807B6105E0FB68154A93421ED1144B7B61D0
S1131A907869FFF7B1F9B860BB685A017B68B2FB9B
S1131AA0F3F33B613B69203B3B613B69DB003B61FA
S1131AB03A6947F6F87313403B610421F868FFF76D
S1131AC0B9FFFB683A69DA6000E000BF1837BD4629
S1131AD080BD00BF0040084090071A000044084041
S1131AE090171C0080B483B000AF78600B46FB7085
S1131AF0FB78002B08D000BF7B685B6C002BFBD10C
S1131B007B6801221A6402E07B6800221A6400BF29
S1131B100C37BD4680BC704780B582B000AF78609A
S1131B2039607B681A4A934202D07B68194A93420F
S1131B3000BF02217868FFF77DFF7B680A225A60A4
S1131B4001217868FFF7CEFF7B681B6823F01C0334
S1131B503A68127B13433A68527B13433A68927B88
S1131B601A437B681A603B6859683B689B681A464D
S1131B707868FFF777FF3B681B781A467B685A60E2
S1131B8000217868FFF7AEFF00BF0837BD4680BD6F
S1131B90004008400044084080B582B000AF78603F
S1131BA07B68174A934202D07B68164A934200BF6F
S1131BB001217868FFF796FF7B68EA225A607B6808
S1131BC000221A607B680022DA607B6800221A61B6
S1131BD07B6800225A617B6800229A637B6840F22A
S1131BE0F9725A637B680022DA637B6800225A65C3
S1131BF000217868FFF776FF00BF0837BD4680BD37
S1131C00004008400044084080B483B000AF7860CE
S1131C10094B1B6A03F00103002B07D100BF064BDD
S1131C205A6A7B681340002BF9D100E000BF0C37DF
S1131C30BD4680BC704700BF0000084080B584B03A
S1131C4000AF786039607B68002B02D0012B05D08F
S1131C500FE0094BFB600223BB6004E0074BFB6011
S1131C600423BB6000BFB868FFF7CEFFFB683A6887
S1131C701A601037BD4680BD080008400C000840BB
S1131C8080B485B000AF78601A4B5B69DBB29B000F
S1131C90DBB203F03C03FB73164B1B699B09DBB2FD
S1131CA003F00303DAB2FB7B1343FB737B68FA7B19
S1131CB09A70104B1B69DBB203F03F03DAB27B6806
S1131CC05A700C4B9B691B09DBB21B01FB73094B5C
S1131CD0DB691B09DBB203F00F03DAB2FB7B1343AE
S1131CE0FB737B68FA7B1A7000BF1437BD4680BC57
S1131CF0704700BFD0FF0FE080B58AB000AF034645
S1131D00FB71FB7903F00103002B0ED05F4B1B88A2
S1131D109BB201339AB25D4B1A8000F073F95C4BAD
S1131D201B68002B01D000F053F9FB7903F0020388
S1131D30002B00F0A68000233B6200F011FAF8614A
S1131D400023BB6100237B61524B1B68FA69D31AE1
S1131D503B62FFF7C1FA786263E03B6A3B614C4B3C
S1131D601B68FB604A4B1B68BB614A4AFB691360F2
S1131D700FE0BB691A79FB681B799A4201D9FB68A9
S1131D80BB61FB685B693A69D31A3B61FB689B687A
S1131D90FB60FB68002B04D0FB685B693A699A42DC
S1131DA0E7D2786AFFF7A7FABB695B693A6AD31A84
S1131DB03B62BB6900225A61FFF78EFA7862B86908
S1131DC000F0C8F8786AFFF796FABB691B69002B24
S1131DD00BD0FFF781FA7862BB691B691946B869B1
S1131DE000F05CF8786AFFF786FABB69DB68002BC1
S1131DF006D0BB69DB68BA6912681146B8699847AE
S1131E007B6901337B6100F0ABF9B860BA68FB69A8
S1131E10D31A3A6A13443B62BB68FB61FFF75CFA6E
S1131E2078621B4B1B68002B05D0194B1B685B6940
S1131E303A6A9A4291D27B69012B07D1BB69DB884C
S1131E40022B03D1144B01221A7002E0124B002220
S1131E501A700F4B1B68002B0DD00D4B1B68596972
S1131E600B4B1B683A6A8A1A5A610A4AFB69136067
S1131E7000F0AEF802E0022000F008FA786AFFF7FA
S1131E803AFA00BF2837BD4680BD00BF4402002097
S1131E90480200204C0200205102002080B487B088
S1131EA000AF786039603B687B617B687A695A610E
S1131EB0274B1B68002B40D000233B61244B1B683D
S1131EC0FB600CE0FB685B697A69D31A7B617B6811
S1131ED07A695A61FB683B61FB689B68FB60FB683D
S1131EE0002B13D0FB685B697A699A42EAD2FB68DB
S1131EF05B69002BE6D0FB685B697A699A4205D17D
S1131F007B681A79FB681B799A42DBD83B69002B02
S1131F1003D03B697A689A6002E00D4A7B681360DB
S1131F207B68FA689A60FB68002B0CD0FB685A69DE
S1131F307B69D21AFB685A6105E0054A7B68136025
S1131F407B6800229A6000BF1C37BD4680BC704786
S1131F504802002080B485B000AF78600023FB60A5
S1131F601A4B1B68BB6004E0BB68FB60BB689B68E2
S1131F70BB60BB68002B03D0BA687B689A42F3D17C
S1131F80BA687B689A4201D0022319E0FB68002BEF
S1131F9004D07B689A68FB689A6003E07B689B685E
S1131FA00A4A13607B689B68002B08D07B689B6897
S1131FB059697B685A697B689B680A445A610023A3
S1131FC018461437BD4680BC704700BF4802002045
S1131FD080B582B000AF094B1B685A69084B1B6877
S1131FE013447B60022000F025F9786800F0DAF8E9
S1131FF000F040F800BF0837BD4680BD480200200D
S11320004C02002080B582B000AF00F0A9F87860DF
S1132010164B1B68002B22D0154B1B687A68D31A09
S11320203B60124B1B685B693A689A420BD80F4BB2
S11320301B6859690D4B1B683A688A1A5A610C4A25
S11320407B6813600EE0094B1B685B697A68D31ADE
S1132050074A1360054B1B6800225A6102E0044AD8
S11320607B68136000BF0837BD4680BD480200206E
S11320704C02002080B483B000AF144B1B687B601B
S113208000233B60124B00221A7014E07B68DB884B
S113209003F00203002B03D00D4B01221A700FE052
S11320A07B689B687B607B68002B08D07B685B69DE
S11320B03A6813443B603B68012BE7D900E000BF5A
S11320C000BF0C37BD4680BC704700BF48020020EB
S11320D05002002080B400AF024B5B681846BD4636
S11320E080BC70470000084080B483B000AF7860C3
S11320F0034A7B68936100BF0C37BD4680BC7047C0
S11321000000084080B483B000AF7860054BDA6902
S11321107B68DB4303491340CB6100BF0C37BD46EA
S113212080BC70470000084080B483B000AF786082
S1132130054BDA6904497B681343CB6100BF0C3754
S1132140BD4680BC704700BF0000084080B400AFAB
S1132150024B1B691846BD4680BC7047000008400E
S113216080B582B000AFFFF7B5FF78600C4B1B78E9
S1132170DBB27B80FFF7EAFF034603F00103002B89
S113218005D0FFF7A7FF78607B8801337B807B88CD
S11321901A067B68134318460837BD4680BD00BF46
S11321A05202002080B584B000AF7860FFF7D8FFFA
S11321B0B8607B68FB60FFF7C9FF034603F00403C4
S11321C0002B0DD11A4B1B68B968184600F0E0F8D3
S11321D00346052B04D8164B1B68BA689A4222D1D1
S11321E0B968F86800F0D4F80346042B02D8BB6839
S11321F00533FB600E4AFB6813600D4B1A68BB681D
S1132200D31AB3F1807F0BD2094B1B6823F07F43B1
S113221019460120FFF712FD022000F00BF802E03E
S1132220022000F033F800BF1037BD4680BD00BF68
S11322305402002080B584B000AF0346FB71002334
S1132240FB60FB7903F00103002B03D0FB6843F030
S11322500103FB60FB7903F00203002B0DD00A4B52
S11322601B78002B05D00420FFF73EFF064B00220D
S11322701A70FB6843F00403FB60F868FFF754FF2F
S113228000BF1037BD4680BD0C00002080B584B06F
S113229000AF0346FB710023FB60FB7903F00103ED
S11322A0002B03D0FB6843F00103FB60FB7903F0D0
S11322B00203002B06D0FB6843F00403FB60054BCC
S11322C001221A70F868FFF71DFF00BF1037BD46E2
S11322D080BD00BF0C00002080B584B000AF002397
S11322E0FB730023BB60FEF7F7FF7860FFF72EFF58
S11322F038603B6803F00103002B27D0224B1B7886
S1132300DBB21B06B3F17F4F03D1FB7B43F0010328
S1132310FB731D4B1B78DBB20133DAB21A4B1A7014
S11323201A4B1B68BB60184B1B78DBB21B061A46A2
S1132330BB689B1ABB60BB68B3F1807F06D2B968E7
S11323400120FFF77BFC0220FFF774FF3B6803F0DA
S11323500403002B03D0FB7B43F00203FB733B68B5
S113236003F005031846FFF7BFFEFB7B002B03D0E9
S1132370FB7B1846FFF7C0FC7868FEF7BCFF00BF84
S11323801037BD4680BD00BF520200205402002019
S113239080B483B000AF786039607A683B68D31A40
S11323A018460C37BD4680BC7047000080B483B02B
S11323B000AF0346FB7197F90730002B0BDBFB7969
S11323C003F01F02064997F907305B09012000FA60
S11323D002F241F8232000BF0C37BD4680BC704791
S11323E000E100E080B483B000AF0346FB7197F9CD
S11323F00730002B0CDBFB7903F01F02074997F928
S113240007305B09012000FA02F2603341F823200F
S113241000BF0C37BD4680BC704700BF00E100E040
S113242080B483B000AF786039607B689A6B3B6896
S11324301A437B689A6300BF0C37BD4680BC704763
S113244090B585B000AF01211848FEF777FC184815
S1132450FFF7A2FB174B3C460FCB84E80F003B462B
S113246019461348FFF758FB114B03225A65012103
S11324701148FEF763FC0023042204210320FFF724
S113248043F80023012205210320FFF73DF804212E
S11324900748FFF7C5FF1220FFF7A4FF1220FFF73C
S11324A085FF00BF1437BD4690BD00BF90071A00DA
S11324B000400840F43A000000C2040080B400AFB9
S11324C0024B1B781846BD4680BC7047580200205A
S11324D080B582B000AF786039600A4B1B78002B5E
S11324E008D03A680849786801F0B9F8054B002229
S11324F01A7002E07B6800221A7000BF0837BD46DC
S113250080BD00BF580200205C02002080B582B06C
S113251000AF786039603A687968084801F09FF83C
S1132520074B00221A70074B01221A700221064839
S1132530FFF776FF00BF0837BD4680BD700200205C
S1132540900200206C0200200040084080B582B058
S113255000AF314B9B6803F02003002B27D02E4B98
S1132560DB69FB71FB790D2B10D02C4B1B780F2BE7
S11325700CD82A4B1B781946294AFB795354274B0C
S11325801B780133DAB2254B1A7010E0234B1B7809
S11325901A46234B0021995410222149214801F065
S11325A05EF8214B01221A701C4B00221A701A4B40
S11325B09B6803F01003002B29D01C4B1B78002BC5
S11325C025D01B4B1B781A461A4B9B5CBB71BB79FD
S11325D0002B0DD0164B1B780F2B09D80E4ABB7954
S11325E09362134B1B780133DAB2114B1A700EE06D
S11325F0094B0D229A62084B9B6B074A23F0020396
S113260093630B4B00221A70084B00221A7000BF10
S11326100837BD4680BD00BF00400840910200203D
S1132620800200205C020020580200206C0200207E
S1132630900200207002002080B500AF0122012129
S11326400220FEF7EBFD04210120FEF727FD012106
S11326501048FEF773FB012201210020FEF7DEFD86
S113266002210D48FEF71AFD01210B48FEF766FB17
S113267002210A48FEF712FD01210848FEF75EFB1D
S113268002210748FEF70AFD01210548FEF756FB23
S113269000BF80BD40810400D0233E0002001E0024
S11326A00300200080B487B000AF78603960274A07
S11326B007F1080307CA03C31A800233120C1A7005
S11326C07B68002B07DA7B685B427B603B685A1CA3
S11326D03A602D221A707B687B617B691C4A82FBFD
S11326E003129210DB17D31A7B613B6801333B6002
S11326F07B69002BF1DC3B685A1E3A6000221A7099
S11327007968134B83FB01239A10CB17D21A134613
S11327109B0013445B00CA1A3B68591E396007F1D9
S113272018010A4412F8102C1A707B68084A82FBBC
S113273003129210DB17D31A7B607B68002BDFDC5B
S113274000BF1C37BD4680BC704700BF043B00007F
S11327506766666680B483B000AF0346FB7197F981
S11327600730002B0BDBFB7903F01F02064997F9B6
S113277007305B09012000FA02F241F8232000BF70
S11327800C37BD4680BC704700E100E080B483B0E4
S113279000AF03463960FB71FB79002B0DD0FB7948
S11327A0012B0AD0FB79022B07D0FB79032B04D031
S11327B0FB79042B01D0FB79052B01223B6802FA3B
S11327C003F30749FA7918461346DB0013449B00C8
S11327D00B441833186000BF0C37BD4680BC7047EB
S11327E00060004080B584B000AF534B1B68FB60B1
S11327F0FB681B0E002B15D1504BBB60BB681B68DC
S113280023F07002BB681A604D4BBB60BB681B6849
S113281023F06042BB681A60BB681B6863F06062A7
S1132820BB681A60FB681B0E032B20D8444BBB60AB
S1132830BB681B6823F4FC52BB681A60414BBB6045
S1132840BB6800221A60404BBB60BB6800221A6060
S11328503E4BBB60BB6800221A603D4BBB60BB684B
S113286000221A603B4BBB60BB6800221A603B46E7
S11328701846FFF705FA7B78012B15D13B78002B1E
S113288007D1304BBB60BB681B6843F00202BB68D6
S11328901A603B78012B07D82B4BBB60BB681B68C5
S11328A043F00102BB681A602B4B1B68FB60FB689A
S11328B02A4A93423BD8244BBB60BB681B6843F451
S11328C09042BB681A60264B1B681B0A1B0603F068
S11328D0FE437B60224B1B681B0403F4FE037A68EF
S11328E013437B601E4B1B681B0A1B0203F4FE434D
S11328F07A6813437B601A4B1B6803F07F037A6882
S113290013437B60174BBB60BB687A681A60164B35
S1132910BB60164B1B687B60BB687A681A600A4B05
S1132920BB60BB681B6823F49042BB681A6000BF9D
S11329301037BD4680BD00BFFC81E00F0CA00C40E9
S113294020600C4040800C4044800C4058800C4077
S113295060800C4078800C40F081E00FFFB98A4C15
S1132960B481E00F342000402C400040C881E00FC7
S113297080B500AF0920FFF7EDFE0120FFF7EAFE66
S113298000BF80BD80B582B000AF03463960FB71E3
S1132990FB7939681846FFF7F9FE00BF0837BD46D2
S11329A080BD000080B500AFFFF71CFFFFF744FEB9
S11329B0FFF746FD00F040F9FFF7DAFF00F09EF95B
S11329C000F0A0FA0020FDF739FD0848FDF744FEA9
S11329D00020FDF77DFD00F0C7F803210220FFF77A
S11329E0D1FF00F0E7FC00F0EFFCF6E7103B00003D
S11329F080B483B000AF03463960FB71FB79002BD0
S1132A000DD0FB79012B0AD0FB79022B07D0FB797F
S1132A10032B04D0FB79042B01D0FB79052B012275
S1132A203B6802FA03F30749FA7918461346DB00B8
S1132A3013449B000B441433186000BF0C37BD468D
S1132A4080BC70470060004080B483B000AF034690
S1132A503960FB71FB79002B0DD0FB79012B0AD077
S1132A60FB79022B07D0FB79032B04D0FB79042BD1
S1132A7001D0FB79052B01223B6802FA03F30749D5
S1132A80FA7918461346DB0013449B000B441033B9
S1132A90186000BF0C37BD4680BC70470060004022
S1132AA080B582B000AF03463960FB71FB793968A9
S1132AB01846FFF7C9FF00BF0837BD4680BD80B583
S1132AC082B000AF03463960FB71FB793968184660
S1132AD0FFF78EFF00BF0837BD4680BD80B483B0CA
S1132AE000AF786039607B68042B20D83B68002BEA
S1132AF001DA00233B603B68FF2B01DDFF233B60D1
S1132B000D497B683A6841F823207B68042B0ED872
S1132B1001A252F823F000BF2D2B00002D2B000042
S1132B202D2B00002D2B00002D2B000000BF00BF1B
S1132B300C37BD4680BC70479402002080B485B039
S1132B4000AF78600023FB607B68042B04D8054A3F
S1132B507B6852F82330FB60FB6818461437BD4687
S1132B6080BC70479402002080B500AF0121024868
S1132B70FEF7E4F800BF80BD00C2040080B500AFDA
S1132B8000210220FFF78CFF044B01229A610021EF
S1132B900220FFF794FF00BF80BD00BF000001408A
S1132BA080B400AF064B1B6903F00103002B02D075
S1132BB0034B01229A6100BFBD4680BC704700BF31
S1132BC00010004080B483B000AF0346FB7197F956
S1132BD00730002B0CDBFB7903F01F02074997F940
S1132BE007305B09012000FA02F2603341F8232028
S1132BF000BF0C37BD4680BC704700BF00E100E059
S1132C0080B584B002AF396011461A460346FB71A1
S1132C100B46BB7113467B71BA79F8793B7C0193FF
S1132C207B79009313463A683968FEF703FC00BFCA
S1132C300837BD4680BD000080B582B002AF0121D7
S1132C401348FEF77BF80123022209210120FEF735
S1132C505BFC012302220A210120FEF755FC01231B
S1132C6000930123002209210120FFF7C9FF01235A
S1132C700093012300220A210120FFF7C1FF09204C
S1132C80FFF7A0FF0120FFF79DFF00BFBD4680BDF9
S1132C9000C2040080B400AF094BD3F8143103F42C
S1132CA00073002B07D0064B4FF40072C3F81C21AD
S1132CB0044B01221A7000BFBD4680BC704700BFA0
S1132CC000600040A802002080B400AF094BD3F894
S1132CD0143103F48063002B07D0064B4FF4806259
S1132CE0C3F81C21044B01221A7000BFBD4680BCEE
S1132CF0704700BF00600040A902002080B500AF0B
S1132D0001211048FEF71AF801210F48FEF716F8C2
S1132D100023042200210220FEF7F6FB00230422F4
S1132D2001210220FEF7F0FB0023042202210220ED
S1132D30FEF7EAFB0023042203210220FEF7E4FB52
S1132D4000BF80BD4081040000C2040080B483B091
S1132D5000AF0346FB7197F90730002B0BDBFB79BF
S1132D6003F01F02064997F907305B09012000FAB6
S1132D7002F241F8232000BF0C37BD4680BC7047E7
S1132D8000E100E080B400AF054B1B69044A23F066
S1132D900403136130BF00BFBD4680BC704700BF51
S1132DA000ED00E080B400AF144B02225A60134BD4
S1132DB001229A61124B1B78DBB21946114B1B6836
S1132DC0114A42F821300E4B1B78DBB21A460F4BE6
S1132DD053F822200B4B1B689A4208D2084B1B78ED
S1132DE0DBB21946074B1B68084A42F82130084BEE
S1132DF001221A7000BFBD4680BC70470004014028
S1132E00AB020020B0020020B40200201000002019
S1132E10AC02002080B485B000AF0346FB71FB799F
S1132E200B4A52F82330FB60FB689B08FA68D31AFC
S1132E30FB60FB79074A52F82330FA689A4201D9B9
S1132E40012300E0002318461437BD4680BC7047B8
S1132E5010000020B402002080B582B000AF2348E7
S1132E60FDF70EFD224B00221A7032E0204B1B7836
S1132E70DBB21A461F4B9B5C83F00103DBB2002BD1
S1132E801FD11B4B1B78FB71FB7919461748FDF7C3
S1132E90BDFC194B00225A62184B00221A60184BD1
S1132EA000221A70144B01225A6001E0FFF76AFFF6
S1132EB0134B1B78DBB283F00103DBB2002BF5D19B
S1132EC000E000BF0A4B1B78DBB20133DAB2084BD7
S1132ED01A70074B1B78DBB2072BC7D90348FDF7E1
S1132EE0B3FC00BF0837BD4680BD00BF00140040DE
S1132EF0AB020020183B000000040140B002002097
S1132F00AC020020B0B586B000AF1D4B3C1D1D4681
S1132F100FCD0FC42B6823601A4B9B68194A43F4E6
S1132F2080739360174B5B6C164A43F4A463536439
S1132F30154B4FF010621A60134B6422DA61124B86
S1132F400122DA60104B00225A623B1D19460F48D9
S1132F50FDF718FC0A20FFF7F9FE0C4B1B680B4A1F
S1132F6043F480331360094BDB68084A43F00103E0
S1132F70D3600520FFF7EAFE00BF1837BD46B0BD99
S1132F80383B000000800C40000401400014004065
S1132F9080B500AFFFF704FE074B1B6903F0010384
S1132FA0002B07D0044B01229A61044B1B680133A8
S1132FB0024A136000BF80BD00140040B00200202C
S1132FC0B0B495B000AF78603960754BFB6342F2E2
S1132FD01073BB63BB6B002B00DA1F335B117B6385
S1132FE0FB6BBB6478237B646E4B07F11C041D46AA
S1132FF00FCD0FC495E8030084E803006A4B07F182
S113300008041D460FCD0FC42B6823600123FB6405
S113301044E0FB6C9B0007F15002134453F8483C16
S1133020013B624A52F823301A02FB6C9B0007F101
S113303050010B4443F8342CFB6C9B0007F1500205
S1133040134453F8483C013B594A52F82320FB6C83
S11330509B0007F150010B4453F8343CB3FBF2F2EC
S1133060FB6C9B0007F150010B4443F8342CFB6CC0
S11330709B0007F15002134453F8343C7A6C9A4293
S113308009D9FB6C9B0007F15002134453F8343CFC
S11330907B64FB6CBB64FB6C0133FB64FB6C042B37
S11330A0B7DDBA6CFB6B9A4204D1424B00221A7012
S11330B0FB6B70E0BB6C013B5B00BA6B02FB03F380
S11330C03D4A82FB0312DB17D31A3B643A6CBB6C98
S11330D0013B9B0007F150010B4453F8343CC3F50A
S11330E08073B96B01FB03F33449A1FB0313990803
S11330F0BB6C9B0007F15000034453F8343CC3F508
S11331008073B1FBF3F3D31A3B64BB6C01339B00B4
S113311007F15002134453F8343CC3F58073BA6B7F
S113312002FB03F3254AA2FB03239A08BB6C9B0012
S113313007F150010B4453F8343CC3F58073B2FBE0
S1133140F3F23B6C13443B643A6C7B6BD31A3B64E1
S11331503A687B68D21A3B6C02FB03F33B647B6BDB
S11331605B00BA6BD31A3A6C92FBF3F33B643A6C90
S11331707B6813443B643A6C7B689A4201DA7B684F
S11331803B643A6C3B689A4201DD3B683B64094B03
S113319001221A703B6C18465437BD46B0BC7047C8
S11331A099D4FFFF203B00004C3B0000B4020020F8
S11331B010000020AA020020ABAAAA2AABAAAAAA3D
S11331C080B500AFFFF748FE124B1B780033042B89
S11331D012D8FF210020FFF7F3FE02460E4B1A60BF
S11331E00E4B1B78DBB2002B05D00D4B01221A705D
S11331F00A4B00221A7000BF0520FFF70BFE03469E
S1133200002B05D0034B06221A70064B01221A70BC
S113321000BF80BD4D000020D8020020AA0200207B
S11332204F0000204E00002080B400AF2F4B1B78CD
S1133230DBB2002B27D02E4B1B78052B1DD801A207
S113324052F823F05D320000653200006532000060
S1133250653200006532000073320000254B052200
S11332601A700AE0234B1B78013BDAB2214B1A7027
S113327003E0204B04221A7000BF1F4B01221A7076
S11332801A4B00221A701D4B1B78DBB2002B28D07E
S1133290174B1B78052B1ED801A252F823F000BF50
S11332A0B9320000B9320000B9320000B93200006E
S11332B0C7320000CF3200000E4B1B780133DAB264
S11332C00C4B1A7007E00B4B05221A7003E0094BF4
S11332D000221A7000BF084B01221A70074B00220B
S11332E01A7000BFBD4680BC704700BFA802002012
S11332F04C0000204D0000204E000020A9020020B8
S113330080B588B000AF00237B6007F1080300227A
S11333101A605A609A60FFF7D1F80346002B3AD03E
S11333203B1D10211846FFF7D3F80023FB612CE066
S11333301B4AFB6952F82330391D0322184600F05A
S11333407CF90346002B1DD1FB69DAB2154B1A70C8
S11333503B1D2021184600F047F9B861BB69002BDA
S113336010D03B460A221946B86900F009FA786180
S11333703B681B78002B05D10B4A7B6913600B4B10
S113338001221A70FB690133FB61FB69062BCFD95B
S1133390074B01221A7000BF2037BD4680BD00BF15
S11333A0300000204D000020D80200204F000020F3
S11333B04E00002080B500AFFFF702FFFFF734FF97
S11333C0FFF79EFF00BF80BD80B58AB000AF5C4BA5
S11333D01B78002B0ED05B4B1B780033042B0AD8D0
S11333E0584B1B781A46584B1B6819461046FFF772
S11333F075FB00E000BF554B1B78002B03D1504BED
S11334001B78002B67D04F4B1B78062B63D801A287
S113341052F823F03134000031340000313400001C
S11334203134000031340000AB340000AB34000010
S1133430444B1B781846FFF781FB03461A46424B60
S11334401A60404B1B781A46414B53F822301846F9
S1133450FDF702F93C4B1B681846FDF739F83A4B67
S11334601B6807F1100211461846FFF71BF9354B8C
S11334701B781A46364B53F822103B461022184646
S113348000F0EDF83B4610223249184600F0C1F82E
S113349007F110013B461022184600F0BAF83B46EB
S11334A010211846FFF732F815E0264B1B781A4610
S11334B0274B53F822301846FDF7CEF8FDF79CF859
S11334C0204B1B781A46224B53F822301021184601
S11334D0FFF71CF800BF1B4B1A781F4B1A701B4BCD
S11334E000221A70184B1B681C4A1360144B0022EC
S11334F01A7000237B6202E07B6A01337B627B6A81
S113350042F20F729342F7D9134B1B78062B12D158
S113351000233B6206E03F21386AFFF7DFFA3B6A8B
S113352001333B623B6A042BF5D9064B05221A7022
S1133530064B01221A7000BF2837BD4680BD00BF6C
S11335404F0000204D000020D80200204E00002033
S113355030000020943B00004C000020D4020020E6
S11335600028B8BF4042704708B5074B044613B162
S11335700021AFF30080054B1868836A03B19847B4
S1133580204600F035F900BF00000000983B000021
S113359070B500250C4E0D4CA41BA410A54209D1F6
S11335A000F028F900250A4E0A4CA41BA410A542D9
S11335B005D170BD56F8253098470135EEE756F829
S11335C0253098470135F2E7200200202002002030
S11335D0200200202402002003460244934200D12A
S11335E0704703F8011BF9E7C9B2034610F8012B31
S11335F01AB18A42F9D118467047002918BF00232E
S1133600F9E7034613F8012B002AFBD1181A0138F5
S11336107047034630B51C785D1C44B912F1FF3283
S113362004D311F8014B03F8014B14B930BD2B46F8
S1133630F1E7002AF2D11A70F0E710B56AB1013946
S1133640841810F8013B11F8012F934203D1A042D2
S113365001D0002BF5D1981A10BD1046FCE770B5C7
S11336600446013902B970BD234611F8015F561EA4
S113367003F8015B2DB91444A342F4D003F8015BB1
S1133680FAE71C463246EDE72DE9F04780468946C5
S113369092461E460F463D46089815F8014B00F029
S11336A085F82044437813F0080332D12D2C32D10D
S11336B001227C78BD1C002E5DD0102E09D1302C47
S11336C007D12B7803F0DF03582B4FD110266C78E9
S11336D00235002A14BF4FF000416FF0004100276B
S11336E0B1FBF6FC384606FB1C1EA4F13003092B83
S11336F017D81C46A64223DD7B1C07D084451CD367
S113370001D1A64519DB012700FB064015F8014B42
S1133710EBE72F46BFE72B2C04BFBD1C7C781A4671
S1133720C9E7A4F14103192B01D8373CE2E7A4F11E
S11337306103192B04D8573CDCE74FF0FF37E5E76A
S11337407B1C08D122230846C8F80030BAF1000FC8
S113375007D1BDE8F08702B14042BAF1000FF8D0BA
S11337600FB105F1FF39CAF80090F2E73024002EBA
S1133770AFD10826ADE7302CA3D00A26A9E7000074
S1133780084B37B51C68084D236A002B08BF2B462D
S1133790009313460A4601462046FFF775FF03B01F
S11337A030BD00BF50000020B4000020D0F8EC0071
S11337B0704782B001B901A942B14BB113780B60D3
S11337C01278101C18BF012002B070471046FBE7A6
S11337D06FF00100F8E749B1FF2A8BBF8A230A7012
S11337E00360012088BF4FF0FF30704708467047E0
S11337F0FEE700BFF8B500BFF8BC08BC9E467047A2
S1133800F8B500BFF8BC08BC9E467047030301002E
S1133810010302020203020001010A0C0C0A090955
S1133820090A0B0B0C0B0B0A030301000103020230
S11338300203020001010E10100E0D0D0D0E0F0FEC
S1133840100F0F0E03030100010302020203020022
S1133850010112141412111111121313141313125F
S1133860030301000103020202030200010116180E
S11338701816151515161717181717160303010030
S113388001030202020302000101190606190707D7
S113389007191A1A061A1A1903030100010302026E
S11338A00203020001011B04041B0505051B1C1C6B
S11338B0041C1C1B03030100010302020203020097
S11338C001011D02021D0303031D1E1E021E1E1DF7
S11338D0030201000103021F1F1F1F2020200302F7
S11338E001000103022121212123232303020100DA
S11338F001030224242424252525030201000103B5
S11339000226262626272727010201020301010099
S11339100000000000000000000000010203040594
S11339200607000000000C11140D03030302020239
S113393002030A0C09090C0A0B0B0303030202021B
S113394003020E100D0D100F0F0E030303020202EB
S113395002031214111114121313030303020202BB
S1133960030216181515181717160303030202028B
S113397002031906070706191A1A030303020202AF
S113398003021B040505041C1C1B0303030202029F
S113399002031D020303021D1E1E01000102020098
S11339A001010C0A09090C0B0B0A010001020200B7
S11339B00101100E0D0D100F0F0E01000102020087
S11339C00101141211111413131201000102020057
S11339D00101181615151817171601000102020027
S11339E0010106190707061A1A190100010202004B
S11339F00101041B0505041C1C1B0100010202003B
S1133A000101021D0303021E1E1D0000000000111F
S1133A1080020000000002060000200039000F00B0
S1133A200000401500204004001000223F00060062
S1133A305B044F0466046D047D0407007F046F0477
S1133A4000000000000A000080200000FFFF77044F
S1133A50790A3900B020790071007D0476040600EB
S1133A600E00700A3800B602B6083F0073043F081F
S1133A70730C6D0401113E0030223628802A6E0436
S1133A800922390080080F000100080000015810C5
S1133A907C0458005E04582071040C0C7404040067
S1133AA00E00700C3800541454045C04730467044E
S1133AB05004080C78001C0010201428802A0C08DC
S1133AC0482000003F0006005B004F0066006D00C8
S1133AD07D0007007F006F0077007C0039005E00E6
S1133AE0790071004000000001030800000000009C
S1133AF00000000005000000000000008025000018
S1133B0000000000303132333435363738390000A4
S1133B10506F7765725570000101010100010000CA
S1133B20FF000000FF000000FF000000FF00000095
S1133B30FF000000FF00000000000000070000007C
S1133B40070503003D000000010000000000000024
S1133B500100000002000000030000000400000057
S1133B607768697465000000616D62657200000029
S1133B7072656400677265656E000000626C75654D
S1133B800000000069646C650000000073746172D9
S1133B907400000020000000540000204300504F37
S1133BA0534958002E0000202020202020202020CF
S1133BB028282828282020202020202020202020D9
S1133BC02020202020202088101010101010101009
S1133BD0101010101010100404040404040404044D
S1133BE004101010101010104141414141410101D5
S1133BF001010101010101010101010101010101B1
S1133C0001011010101010104242424242420202BE
S1133C100202020202020202020202020202020280
S1133C20020210101010200000000000000000002C
S1133C300000000000000000000000000000000080
S1133C400000000000000000000000000000000070
S1133C500000000000000000000000000000000060
S1133C600000000000000000000000000000000050
S1133C700000000000000000000000000000000040
S1133C800000000000000000000000000000000030
S1133C900000000000000000000000000000000020
S10F3CA000000000000000000000000014
S10B3CAC50C4FF7F0100000079
S1133CB40048E80100800000809FD5000100000056
S1133CC401000000010000000100000001000000E8
S1133CD401000000010000000100000001000000D8
S1133CE4603B0000683B0000703B0000743B000034
S1133CF47C3B0000843B00008C3B00000606010171
S1133D045400002000000000000000000000000037
S1133D14000000000000000000000000000000009B
S1133D24000000000000000000000000000000008B
S1133D34000000000000000000000000000000007B
S1133D44000000000000000000000000000000006B
S1133D54000000000000000000000000000000005B
S1133D640000000043000000000000000000000008
S1133D74000000000000000000000000000000003B
S1133D8400000000430000000000000000000000E8
S1133D94000000000000000000000000000000001B
S1133DA400000000430000000000000000000000C8
S1133DB400000000000000000000000000000000FB
S1133DC400000000430000000000000000000000A8
S1133DD400000000000000000000000000000000DB
S1133DE40000000043000000000000000000000088
S1133DF400000000000000000000000000000000BB
S1133E040000000043000000000000000000000067
S1133E14000000000000000000000000000000009A
S1133E240000000043000000000000000000000047
S1133E34000000000000000000000000000000007A
S1133E4400000000D7370000B33700000000000072
S1133E54A63B0000A43B0000A53B0000A53B0000DA
S1133E64A53B0000A53B0000A53B0000A53B0000CA
S1133E74A53B0000A53B0000A53B0000FFFFFFFF9E
S1133E84FFFFFFFFFFFFFFFFFFFF0000010041539F
S1133E944349490000000000000000000000000045
S1133EA40000000000000000000000000000415376
S1133EB44349490000000000000000000000000025
S1133EC400000000000000000000000000000000EA
S10B3ED4E1000000BD00000044
S90301718A
