S01200006D6F6F646C696768745F322E7333378A
S113000000400020710100009D0100009D010000DE
S11300109D0100009D0100009D0100009D01000064
S11300209D0100009D0100009D0100009D01000054
S11300309D0100009C0100009D0100009D01000045
S11300409D0100000D2300002D2200009D010000F1
S11300509D010000092500009D0100009D01000094
S11300609D010000E9220000812300009D010000A1
S11300709D0100009D0100009D0100009D01000004
S11300809D0100009D010000351D00009D01000040
S11300909D0100009D0100009D0100009D010000E4
S11300A0951B00009D0100009D0100009D010000C2
S11300B09D0100009D0100009D01000010B5054C4C
S11300C0237833B9044B13B10448AFF30080012300
S11300D0237010BD2C02002000000000A830000096
S11300E008B5034B1BB103490348AFF3008008BDB7
S11300F00000000030020020A8300000154B002B47
S113010008BF134B9D46A3F5803A00218B460F464A
S11301101348144A121A02F053FC0F4B002B00D060
S113012098470E4B002B00D0984700200021040074
S11301300D000D48002802D00C48AFF3008002F0F7
S11301401BFC2000290001F0B1FE02F001FC00BFFD
S11301500000080000400020000000000000000033
S11301602C020020E002002000000000000000003B
S1130170064880470649074A074B9A42BEBF51F8D2
S1130180040B42F8040BF8E7FFF7B8FF350300004F
S1130190B4300000000000202C020020FEE700BF65
S11301A0264AD36A03F47053B3F5805F24D0B3F5C1
S11301B0005F1ED0B3F5006F11D0D36803F4E06381
S11301C0B3F5007F37D01AD9B3F5806F31D0B3F5CA
S11301D0A06F2CD0B3F5407F1ED0002001E0184B57
S11301E01868164B174A5B6803F00F03D840106079
S11301F07047154B1868F4E74FF40040F1E76BB112
S1130200B3F5807FE9D1114B1148DA6C114BB2F18F
S1130210985F38BF1846E4E70F48E2E70B4B0F48F6
S1130220DA6C0F4BB2F1985F38BF1846D9E70D4826
S1130230D7E70D48D5E70D48D3E700BF00800C4051
S1130240040000200000002008000020B081E00F1E
S113025040B56400C0CF6A00809FD500804F120073
S113026040420F00003FAB01406F4001C0D8A700DF
S1130270004870470048E801224AD36A03F47053E7
S1130280B3F5805F1DD0B3F5005F17D0B3F5006FF1
S113029011D0D36803F4E063B3F5007F30D013D9F1
S11302A0B3F5806F2AD0B3F5A06F25D0B3F5407FA6
S11302B017D000207047144B18687047134B186808
S11302C070474FF4004070476BB1B3F5807FF0D1B5
S11302D00F4B1048DA6C104BB2F1985F38BF1846D8
S11302E070470E4870470A4B0D48DA6C0D4BB2F15B
S11302F0985F38BF184670470B4870470B487047E3
S11303000B48704700800C400400002008000020C7
S1130310B081E00F40B56400C0CF6A00809FD50073
S1130320804F120040420F00003FAB01406F40017C
S1130330C0D8A700014A024B9A6070470000000031
S113034000ED00E04FF40040704700BF014B186817
S1130350704700BF0800002038B50024054601217D
S11303602D4800F021FD03212C4800F083FE80215C
S11303702B4800F019FC204600F034FF01212948E5
S113038000F012FD284B29489A6A9C6201F08EF80D
S1130390012140F2FF3001F0B7F885BB00224FF095
S11303A0FF31104601F0F4F800224FF0FF31012034
S11303B001F0EEF800224FF0FF31022001F0E8F8DE
S11303C000224FF0FF31032001F0E2F80022FF2168
S11303D0104601F001F90022FF21012001F0FCF890
S11303E00022FF21022001F0F7F80022FF21032060
S11303F001F0F2F80C4A536E002BFCD138BD2046B4
S113040001F00EF94FF4803001F070F8084AD36F10
S113041043F00803D367C1E7D0233E0002001E0067
S113042080002A0000262C0000A00840D02E0000E6
S113043000800C402DE9F04F83B042F20E739842D5
S11304400CDCD04B0446984280F2EB811C462046DB
S113045002F07AFA01230446009303E0002342F2F7
S11304600F740093C84B5D6E002DFCD14FF0010852
S11304702A46C3F8608028464FF0004101F088F80E
S11304802A4640464FF0004101F082F82A464FF0D8
S11304900041022001F07CF82A464FF0004103207D
S11304A001F076F82A462846522101F095F82A46AA
S11304B04046FB2101F090F82A46FB21022001F07E
S11304C08BF82A46FB21032001F086F8AF4BE51791
S11304D083FB0423C5EBA30303EB8303A4EB4303D4
S11304E0AB4F9BB237F81360F10700F1A681B20756
S11304F006F0100A06F0080B06F0200906F00403C3
S113050006F0400800F18281002B40F07581BBF1B8
S1130510000F40F06781BAF1000F40F05981B9F142
S1130520000F40F04681B8F1000F40F04B8197492D
S113053081FB0423C5EBA30381FB0321DA17C2EB80
S1130540A10202EB8202A3EB42039BB237F81360D1
S1130550F30700F16C8106F0100A06F0080B06F0B0
S1130560200906F0040306F04008B60700F11681DE
S1130570002B40F0FC80BBF1000F40F0EE80BAF19C
S1130580000F40F0E080B9F1000F40F0CD80B8F1E9
S1130590000F40F0D2807F4B7C4983FB0423C5EBE2
S11305A0631381FB0321DA17C2EBA10202EB82027F
S11305B0A3EB42039BB237F81360F00700F14981C3
S11305C0B10706F0100A06F0080B06F0200906F041
S11305D0040306F0400800F19C80002B40F08F805B
S11305E0BBF1000F40F08180BAF1000F74D1B9F172
S11305F0000F63D1B8F1000F68D1674A634B82FBE7
S11306000424C5EBA41483FB0432E317C3EBA20355
S1130610009A03EB8303A4EB43033ABB9BB237F882
S11306201340E20700F10F81A30704F0100704F060
S1130630080804F0200604F0040904F0400534D44A
S1130640B9F1000F28D1B8F1000F1DD1A7B936B9FF
S113065065B900224C4B1A6603B0BDE8F08F012245
S11306602721032000F05CFF002DF2D00122272176
S1130670022000F055FFECE701222721104600F08C
S11306804FFF002EE4D0EAE701222621002000F0EB
S113069047FF002FDBD0EFE701222621104600F0B0
S11306A03FFFB8F1000FD1D0EEE70122262102204E
S11306B000F036FFB9F1000FC5D0EDE70122252186
S11306C0032000F02DFFB8F1000F96D00122252160
S11306D0022000F025FF90E701222521104600F0BA
S11306E01FFFB9F1000F85D0E8E701222421002083
S11306F000F016FFBAF1000F3FF479AFECE70122E6
S11307002421104600F00CFFBBF1000F3FF46CAF46
S1130710EBE7012224210220019300F001FF019B59
S1130720002B3FF45DAFEAE701222321032000F010
S1130730F7FEB8F1000F3FF42EAF0122232102206F
S113074000F0EEFE27E701222321104600F0E8FE28
S1130750B9F1000F3FF41BAFE6E70122212100208D
S113076000F0DEFEBAF1000F3FF40DAFEBE701221B
S11307702121104600F0D4FEBBF1000F3FF4FFAE80
S1130780EBE700BF19FCFFFF00A008406766666640
S1130790AC2E00001F85EB51D34D621001222121A4
S11307A00220019300F0BCFE019B002B3FF4E3AE5A
S11307B0DDE701222021032000F0B2FEB8F1000F92
S11307C03FF4B5AE01222021022000F0A9FEAEE6DE
S11307D001222021104600F0A3FEB9F1000F3FF4DE
S11307E0A2AEE6E701221F21002000F099FEBAF133
S11307F0000F3FF494AEEBE701221F21104600F0F6
S11308008FFEBBF1000F3FF486AEEBE701221F2100
S11308100220019300F084FE019B002B3FF477AE8D
S1130820EAE70028FFF613AE002300931AE601223C
S11308302121032000F074FE8DE642461F2103208F
S113084000F06EFE53E601222621032000F068FE2C
S1130850EAE601222421032000F062FEB0E600BF94
S113086008B500224FF00041104600F091FE00222E
S11308704FF00041012000F08BFE00224FF00041B8
S1130880022000F085FE00224FF00041032000F01A
S11308907FFE00225221104600F09EFE0022FB2122
S11308A0012000F099FE0022FB21022000F094FEBA
S11308B0BDE808400022FB21032000F08DBE00BFEC
S11308C02DE9F04F8BB0099002F08FF87A4B069027
S11308D05C6E002CFCD1012522461D66774920461A
S11308E000F056FE22462846754900F051FE224685
S11308F07349022000F04CFE22467149032000F0A7
S113090047FEA246DFF8C0B1069B534540F3B980C9
S1130910099B6C4A13F80A30203B32F81340E10774
S113092006D501229BF80E109BF8000000F0F8FD9C
S113093004F48072029204F48062019204F02002B2
S1130940059204F04002049204F01002039204F0B1
S113095008020792A20704F0040304F4007504F4E7
S1130960005704F4805804F4006904F0800608D5A4
S113097001229BF80F109BF80100089300F0D0FDB2
S1130980089B33B101229BF810109BF8020000F081
S1130990C7FD079B33B101229BF811109BF803009C
S11309A000F0BEFD039B002B73D1059B002B7AD175
S11309B0049B002B54D1002E5BD1029B002B3ED113
S11309C0002D45D1019B7BBBB9F1000F21D1B8F1BA
S11309D0000F0DD1AFB90AF1010ABAF1070F0BF1FB
S11309E01C0B91D10022344B1A660BB0BDE8F08F7A
S11309F001229BF81A109BF80C0000F091FD002FC7
S1130A00E9D001229BF81B109BF80D0000F088FD33
S1130A10E1E701229BF819109BF80B0000F080FD20
S1130A20B8F1000FD6D0E3E701229BF818109BF829
S1130A300A0000F075FDB9F1000FC8D0E9E7012202
S1130A409BF816109BF8080000F06AFD002DB9D041
S1130A5001229BF817109BF8090000F061FDB1E733
S1130A6001229BF814109BF8060000F059FD002E9B
S1130A70A3D001229BF815109BF8070000F050FD4D
S1130A809BE700252F46A846A9462E46CDE90155E9
S1130A9091E701229BF812109BF8040000F040FD3E
S1130AA0059B002B84D001229BF813109BF80500B2
S1130AB000F036FD7CE700BF00A0084000CCCC7EEF
S1130AC0FCFEFF7FF42D0000F42B000070B44B7A81
S1130AD00A7A4E681B014C78CD6843EA02230C4A1B
S1130AE043EA06630E7842EA0522A4078D7A44EAB3
S1130AF0C674CE7A42EA05720D7C00F10471234378
S1130B0042EA06424901036042600D6070BC7047CE
S1130B10B0000001436823F00703194341607047A4
S1130B20036823F001030360704700BF036843F0C8
S1130B3001030360704700BF436842EA011223F0D7
S1130B40F7031A434260704770B44B7A0C7A4A68D0
S1130B501B0443EA44438C7A43EA0263CA7A43EAB5
S1130B6004234C780E7843EA02130A7BA40743EA71
S1130B70820344EAC6740A69056823434C7B120263
S1130B80097D25F0010542EA0442056003604260E4
S1130B90036821B970BC23F001030360704743F07C
S1130BA00103036070BC7047C0F30313043B052BBF
S1130BB00FD8DFE803F0600E0E18030F724B984253
S1130BC07FD0724B984200F0C780714B984200F07E
S1130BD08F8070476F4B98425DD003F50433984281
S1130BE000F0A380704770B541F671336A4D0C462E
S1130BF0EE6BEB63FFF73CFB6B68684A03F007039B
S1130C00012B674B034441D893428CBF002201223D
S1130C1061494B6823F0070313434B600EB1002373
S1130C20CB63B4FA84F15F4BC1F11F04596821F01E
S1130C300F0121435960FFF7B3FA41F67132564B65
S1130C40DC6BDA635B6803F00703012B544B65D953
S1130C5002F5740202F68E02034493428CBF022210
S1130C6003224D494B6823F0070313434B600CB137
S1130C700023CB6370BDB1FA81F14A4AC1F11F036D
S1130C80916821F00F0119439160704793428CBF22
S1130C9002220322BCE7434B5A6DD0070AD5B1FAAE
S1130CA081F1404AC1F11F03116F21F0030119437F
S1130CB0116770471A6D5206F1D51A6D5206F9D4B0
S1130CC0EDE7384B5A6DD0070BD5B1FA81F1354AAF
S1130CD0C1F11F01936E23F0F00343EA01139366FD
S1130CE070471A6D5207F0D51A6D5207F9D4ECE724
S1130CF02C4B5A6DD0070AD5B1FA81F1294AC1F1BA
S1130D001F01936E23F00F030B43936670471A6D14
S1130D105207F1D51A6D5207F9D4EDE71F4A03447F
S1130D2093428CBF002201229BE71E4B5A6DD007D1
S1130D300BD5B1FA81F11B4AC1F11F01136F23F0E6
S1130D40300343EA0111116770471A6D5206F0D55A
S1130D501A6D5206F9D4ECE7124B5A6DD0070BD535
S1130D60B1FA81F10F4AC1F11B01936E23F4407370
S1130D7043EA0123936670471A6D5207F0D51A6D42
S1130D805207F9D4ECE700BF8016160080002A0051
S1130D908006120090071A0000000C40FF23F400A4
S1130DA0FFDB0BFF00800C4030B4C0F30323013B96
S1130DB0092B11D8DFE803F02A1D191010052110A2
S1130DC010260125134CC0F30430134B5A6DD2077F
S1130DD004D520448000016030BC70471A6D2A425B
S1130DE0F7D01A6D2A42F9D1F3E7C0F304300B4C63
S1130DF0EFE7C0F304300A4CEBE7C0F30430094CCE
S1130E001025E2E7C0F30430074CE2E7C0F30430F6
S1130E10064CDEE7C002E41000800C400002E4103F
S1130E202002E4100003E410C003E4104000E410C6
S1130E3008B500F47810B0F5B01F00F0A8800FD901
S1130E40B0F5001F51D01CD8B0F5E01F38D0B0F574
S1130E50F01F00F0C080B0F5D01F6FD0002008BD97
S1130E60B0F5802F00F08B807BD9B0F5801F06D0C1
S1130E70B0F5901F00F09D80B0F5602FEED17B4857
S1130E8008BDB0F5301F3FD0B0F5781F73D0B0F572
S1130E90281FE3D1764B9A6A9B6A03F00303022B63
S1130EA000F0CF80032B00F0B980012B00F0BA8052
S1130EB000206F4B9B6EC3F301230433D84008BD5D
S1130EC06B4B9A6A9B6AC3F38103022B00F0AD80DB
S1130ED0032B00F09380012B00F0BF800020644BB3
S1130EE01B6FC3F30113D84008BD614B9A6A9B6A18
S1130EF0C3F38103022B75D0032B3CD0012BADD15E
S1130F00BDE80840FFF71EBA594B9A6A9B6A03F082
S1130F100303022B00F09E80032B73D0012B00F0FF
S1130F2096800020524B9A6EDB6FC2F3012203F0CD
S1130F300703D0400133B0FBF3F008BD4C4B9A6A71
S1130F409B6AC3F38103022B7ED0032B62D0012B57
S1130F5000F086800020464B1B6F03F00303D8404B
S1130F6008BD002842D0B0F5003F7FF477AFBDE85C
S1130F700840FFF715B9FFF713F9400808BDFFF75C
S1130F807BF93B4B9B6803F00F03D84008BD384BFB
S1130F909A6A9B6A03F00303022B64D0032B35D0B7
S1130FA0012B4BD00020324B9B6EC3F30313D8406C
S1130FB008BD2F4B9A6A9B6A03F00303022B37D0B8
S1130FC0032B17D0012B36D00020294B9B6E03F046
S1130FD00F03D84008BD264B9A6A9B6A03F00303AB
S1130FE0022B89D1BDE80840FFF7B0B9BDE808403D
S1130FF0FFF742B9FFF7D4F84008E6E7FFF7D0F867
S113100040086CE7FFF7CCF840088BE7FFF7C8F817
S11310104008C8E7FFF7C4F840089CE7FFF7C0F8AA
S1131020400846E7FFF78EF943E7FFF78FF956E7E5
S1131030FFF78CF9C9E7FFF785F9C6E7FFF782F9EF
S1131040B1E7FFF783F934E7FFF780F983E7FFF7A8
S113105079F967E7FFF77AF964E7FFF773F93EE791
S1131060FFF770F977E7FFF771F99CE7809FD500E8
S113107000800C4000F00F0001280BD009D3032896
S113108056D80139052904D8DFE801F0606B7C03E8
S11310900376704770B50239032948D8DFE801F0B8
S11310A0514D490201242346454A46490B621368BF
S11310B0002BFCD041F67133434DEE6BEB63FFF72D
S11310C0D7F86B68414A03F00703012B404B0344F4
S11310D062D893428CBF002201223B494B6823F023
S11310E0070313434B600EB10023CB63354B5C62A3
S11310F0FFF756F841F67132334BDC6BDA635B6809
S113110003F00703012B324B4BD902F5740202F6AC
S11311108E020344934294BF032202222A494B685D
S113112023F0070313434B600CB10023CB6370BD62
S11311307047284A02240423B7E7274A032440239C
S1131140B3E7264A04244FF48073AEE700210A462D
S113115002282DD01B4A936A23F00C030B4393629D
S113116070474FF48071174B1C4A19621368002BA7
S1131170FCD008210222EBE70122194B0C211A6052
S11311800322E5E740210F4B134A19621368002B31
S1131190FCD004210122DBE7934294BF0322022204
S11311A09BE70A4A034493428CBF00220122B5E71D
S11311B004498B6A23F0030313438B62704700BF17
S11311C08405904300800C4000000C40FF23F40091
S11311D0FFDB0BFF8C0590439C059043A4059043D3
S11311E008089043054A936D5B0706D4D36F00F05B
S11311F0070123F007000843D067704700800C40C4
S113120010B4042806D8DFE800F01915071F2300DE
S1131210114A136210BC7047082304240F480029A4
S1131220F6D00D4B1C62002AF4D00368002BFCD0CE
S113123010BC70470A4880234024F0E709484FF463
S113124000734FF48074EAE7074802230124E6E7B9
S1131250064820231024E2E700800C408C059043CC
S11312609C059043A40590438405904394059043C2
S1131270EFF3108072B6704700B962B6704700BFD2
S113128029B10C3000F1047040010260704708304D
S113129000F1047040010260704700BF30B400F1F7
S11312A00474224600254B7808340C326401520140
S11312B0012B256015602AD0022B24D0164A92698E
S11312C0C2620D788C781B020A7943EA0553CD7803
S11312D043EA041312048C7943EA850302F4E022FE
S11312E013430CB143F08003CA790AB143F04003BD
S11312F00A7A0AB143F002034A7A0AB143F00103BD
S1131300036030BC7047044A126AC262D9E7024AD9
S1131310D269C262D5E700BFB081E00F10B4CB78C8
S11313200C781B010CB143F001034C780CB143F071
S11313300403897809B143F0020312B9836010BC35
S11313407047C36010BC704710B5194C844228BF65
S11313500446E1B1A1421FD9B4EB510F1ED2B4EB44
S1131360910F1DD2B4EBD10F1CD2B4EB111F1BD2C1
S1131370B4EB511F1AD2B4EB911F05D2B4EBD11FB9
S11313804FF0070001D210BD0620C0B210BD0948BD
S1131390FFF74EFD0146DDE70020F6E70120F4E704
S11313A00220F2E70320F0E70420EEE70520ECE753
S11313B040420F0040810400F0B4072A9DF81060F9
S11313C09DF814504FF007071DD9A2F10804DFF867
S11313D048C0A400DCF80010A74000FA04F421EA95
S11313E007002043CCF8000001200949094C1144AE
S11313F090408A001360C2F88060C4F81C01C2F8EF
S11314000051F0BC7047DFF814C09400E2E700BF5D
S11314104008831000600040046100400061004007
S1131420F0B492BBC4002518AD0007294FF00F0C8F
S113143005F1804519D805F5C0456E688F000CFA92
S113144007FC26EA0C0602FA07F73E436E6052B91F
S113145001220444A40004F1804402FA01F104F5D9
S1131460C04403BB6161F0BC704701F1804605F5DF
S1131470C045083EAF68B6000CFA06FC27EA0C0724
S113148002FA06F63E43AE60E1E70126C4002518E1
S1131490AD0005F180458E4005F5C0450BB12E61C8
S11314A0C1E76E61BFE72161F0BC704730B40E4AFA
S11314B041685368457823F4C03323F01F030B437A
S11314C081782B43C57814680B4301892B43057835
S11314D024F001040B43146053601DB1136843F0FE
S11314E00103136030BC704700A00840054BB0F501
S11314F0803F5B68034A23F4803308BF43F480339E
S11315005360704700A00840044A936819B923EA5D
S113151000009060704718439060704700A0084036
S1131520032809D8DFE800F0191109021F291BDD7F
S1131530104B0B449B001A6070471F29D4BF0E4BFD
S11315400E4B0B449B001A6070471F29D4BF0C4BF1
S11315500C4B0B449B001A6070471F2904DC0A4B98
S11315600B449B001A607047084B0B449B001A60A5
S1131570704700BFC002C5104002C510A002C510CC
S11315802002C5108002C5100002C5106002C510FB
S1131590032809D8DFE800F0171009020D4BD86CB6
S11315A042400A404240DA6470470A4B986C424019
S11315B00A4042409A647047064B586C42400A40C5
S11315C042405A647047034B186C42400A40424000
S11315D01A64704700A00840032809D8DFE800F027
S11315E0171009020D4BD86D42400A404240DA659B
S11315F070470A4B986D42400A4042409A657047D2
S1131600064B586D42400A4042405A657047034BAE
S1131610186D42400A4042401A65704700A00840D5
S1131620034A536823F4E01318435060704700BF23
S113163000A0084070B5036C0446D8070D4602D4D8
S1131640636C9907FCD40A236360636C002BFCD1A0
S113165001222B7B687B22642268A97B034322F04E
S11316601C020B43686813432360AE6848B9124BED
S11316709C421ED003F580639C420ED10F48FFF7B5
S1131680D7FB4001B0FBF6F047F6F873226C203824
S1131690D20703EAC00005D5E06000232A7862601F
S11316A0236470BD636C5B07F6D5636C5B07F9D488
S11316B0F2E70348E3E700BF0040084090171C002E
S11316C090071A0010B4436C002BFCD10124EA21CA
S11316D040F2F9720464416010BC0360C3600361AA
S11316E0436183634263C36343650364704700BF1C
S11316F010B488B1012806D10420094C094B1A6A98
S1131700D20702D5216010BC70475A6A1042F9D042
S11317105A6A1042F9D1F5E70220034CEEE700BF04
S11317200C00084000000840080008400B4A5369B8
S113173011699B0003F03C03C1F381110B438370D7
S1131740136903F03F0343709369D26903F0F00314
S1131750C2F3031213430370704700BFD0FF0FE0BE
S113176030B40A780AB9022343600024CB788D7818
S11317701B0443EA05638D7944620C792B4343EAE5
S113178084234D794C7843EA05230CB143F040039C
S1131790CC790CB143F080030C7A0CB143F02003F4
S11317A04C7A0CB143F01003897A09B143F0080371
S11317B003600AB10123436030BC704730B45378EE
S11317C0147895791B0643EA846394782B43D5787F
S11317D043EA0443147943EA053343EA84235579FD
S11317E0D47943EA05230CB143F40013147A0CB101
S11317F043F48013547A0CB143F01003927A0AB183
S113180043F0040303310901435030BC704700BF67
S11318102DE9F84FC607044600F1B380A00701D4B0
S1131820BDE8F88F00F026F9DFF844920746D9F8AE
S113183000508B4E451BFFF71BFD33688346002B7E
S113184000F0FA805A699542C0F0FD804FF000081C
S1131850C9F8007029461C4600E05A698A4209D832
S1131860187994F804C0891A844588BF1C469B687B
S1131870002BF2D15846FFF7FFFC0023D4F814B034
S11318806361FFF7F5FC326842B1A24203D1A8E0DC
S1131890A34247D01A469368002BF9D1FFF7ECFC1A
S11318A02369002B4CD1E36813B121682046984783
S11318B000F0E0F85F44ED1B82460544FFF7D8FCD6
S11318C03368834608F10108002B00F094805A69BC
S11318D05746AA42BCD9B8F1010F00F0BB800020E2
S11318E0604A10705A69551B5D6102205544C9F85D
S11318F000A000F019F9284600F0CCF800210A46AF
S1131900594833680170D988890700F192809B682F
S11319101BB159690A44012AF5D95846BDE8F84F64
S1131920FFF7AABCA3689360A1680029B6D04B69ED
S1131930626913444B61FFF79FFC2369002BB2D00B
S1131940FFF796FC2269336884466261002B4BD012
S11319504FF0000E00E003465969914201D9002975
S11319605ED19868521A62619E460028F3D19C6049
S1131970A06010B143699A1A42616046FFF77CFC8B
S113198091E73A4A364E138801339BB2138000F034
S113199071F83268002A49D0354955690B68C31A71
S11319A0AB4224D90023401B08605361C5180220B0
S11319B000F0BAF8284600F06DF800222A4833688F
S11319C0027008E09B68002B3FF428AF59690A4471
S11319D0012A3FF623AFD9888D07F3D5012303707D
S11319E01CE7A1683160A0E73460A360C5E7EB1A87
S11319F053610860DAE7B8F1010F1DD1E288022AC9
S1131A001DD09846174A82F80080002B7FF46AAFF5
S1131A10022000F0ABF85846BDE8F84FFFF72CBCA5
S1131A201846BEF1000F13D13460A1E7104B1860C3
S1131A30F4E60123037070E70A4A1370E8E7094BE0
S1131A4083F80080E4E700240648BA4604704AE7B5
S1131A5073468CE7E288022A7FF441AFD2E700BFE5
S1131A6054020020500200204C0200204E020020AC
S1131A7048020020054B06495A6808781969C907C5
S1131A8044BF5A68013042EA0060704700000840D1
S1131A905C02002010B52049204B4A681B780C6971
S1131AA0E40748BF4A681C4948BF013342EA03635C
S1131AB00A6912F0040F1A4A03D11168C91A0529D8
S1131AC012D9C11A042998BF581D10601168CB1A85
S1131AD0B3F1807F0CD30121124B0F4A1970D369E3
S1131AE023F00403D36110BD11689942E9D010BDFD
S1131AF01168012021F07F41FFF7FAFD094B1A78A4
S1131B0022B104200022044988611A70024AD36970
S1131B1043F00403D36110BD000008405C020020C0
S1131B20580200200C000020830700F0010217D5A2
S1131B300C4B197831B942F004030B4AD1690B43B9
S1131B40D361704710B404240021074884611970DC
S1131B5042F00403044A10BCD1690B43D3617047BB
S1131B601346EAE70C00002000000840830700F059
S1131B70010204D50121054B42F004021970044905
S1131B80CB6923EA0203CB61704700BF0C0000203D
S1131B90000008402DE9F041FFF76AFB2A4D074693
S1131BA02C69E00705D4610704F005032FD5022052
S1131BB01AE0264A2649167813783606A6F17F4895
S1131BC0B8FA88F80133DBB21370096813784FEA66
S1131BD05818A1EB0361B1F1807F1ED3620704F0B2
S1131BE005030AD548F00200174A9361FFF710FE77
S1131BF03846BDE8F041FFF73FBB134AB6F17F4FCB
S1131C0093611ED03846BDE8F041FFF735BBAB61A8
S1131C103846BDE8F041FFF72FBB0120FFF768FD10
S1131C200C4B1A781AB104210022A9611A70064AD1
S1131C30D36943F00403D361620704F00503DCD5E0
S1131C40D0E70120D2E700BF000008405C0200207A
S1131C50580200200C00002070B584B06D460326A5
S1131C60164C01211648FFF79FF82046FFF72AFD7E
S1131C70144B0FCB85E80F0029462046FFF7DAFC0A
S1131C80666501211048FFF78FF80422304611469B
S1131C900023FFF7C5FB3046002301220521FFF78F
S1131CA0BFFB4FF48021A36B084A43F00403A363F2
S1131CB0C2F88011116004B070BD00BF004008403C
S1131CC090071A00DC2E000000C2040000E100E0CE
S1131CD0014B1878704700BF5D02002010B5064C18
S1131CE023780BB9037010BD0A46044900F0ABFE1B
S1131CF00023237010BD00BF5D020020600200209D
S1131D0010B500240A460146064800F09CFE012155
S1131D100548064B064A04701970936B43F002039E
S1131D20936310BD880200209802002070020020F6
S1131D300040084038B51D4B9A6891060BD5DB6905
S1131D401B4CDBB20D2B207817D00F2815D819495E
S1131D50421C0B542270154B9A68D2060CD5164AB5
S1131D60117849B11548164C0178645C94B10F2977
S1131D7010D801319C62017038BD00250D4B102232
S1131D801D5419460F4800F05EFE01220E4B2570CB
S1131D901A70E0E70D210024044B9962996B21F03D
S1131DA0020199630470147038BD00BF00400840FC
S1131DB08402002074020020700200209802002097
S1131DC088020020600200205D02002038B5012254
S1131DD002201146FFF714FA04210120FFF74AF903
S1131DE001211248FEF7E0FF0122114C11460020A8
S1131DF0FFF706FA0F4D20460221FFF73BF9204674
S1131E000121FEF7D1FF0C4C28460221FFF732F9DD
S1131E1028460121FEF7C8FF20460221FFF72AF9D0
S1131E202046BDE838400121FEF7BEBF40810400D2
S1131E30D0233E0002001E000300200030B484B012
S1131E400446184A01AB0D4607CA03C3002C4FEAE7
S1131E50124123F8022B197003DA2D2364422B70EC
S1131E6001352346104900E01546A1FB0323DB0896
S1131E7005F10102F8D100230B491370A1FB0423DF
S1131E80DB0803EB8300A4EB400004AA104410F821
S1131E900C2C1C4605F80129002BEFD104B030BCF2
S1131EA0704700BFEC2E0000CDCCCCCC00B583B085
S1131EB0464B1B681B0E6ED14549464B0A6822F0FF
S1131EC070020A601A6822F060421A601A6862F0AE
S1131ED060621A6000233F493F480A683F4D22F47C
S1131EE0FC520A603E4C3F4A01F501512B602360CD
S1131EF003600B6001A81360FFF718FC9DF8053020
S1131F00012B51D0384A394B12689A4220D83448B0
S1131F10374C0368374D43F49043036022682168CB
S1131F2023682468090403F4FE4304F07F041204C4
S1131F3001F4FE01234302F0FE420B4313432E4AF5
S1131F402B6012682D4B1A60036823F490430360DE
S1131F50FFF73CFFFFF780FE00F094F94FF40071A7
S1131F600222274B082519601A6000F0E1F900F0FD
S1131F708FFA0020FEF7F0F92248FEF7A1FC0020BA
S1131F80FEF758FA00F08EF81F4C256600F0D6FBD9
S1131F9000F050FCF9E7032B9CD901A8FFF7C6FB1E
S1131FA09DF80530012BADD19DF8043053B90B4A8F
S1131FB0136843F002031360094A136843F00103F2
S1131FC013609FE7012B9DD8F6E700BFFC81E00F6B
S1131FD00CA00C4020600C4058800C4040800C4009
S1131FE044800C4078800C40F081E00FFFB98A4CAB
S1131FF0B481E00F34200040C881E00F2C40004041
S113200000E100E0F82E000000600040042811D830
S1132010002910DBFF291ADDFF221C4B032843F89B
S1132020202025D0042829D14FF0402340F6F50282
S11320305A62704770470021144B032843F820105C
S113204018D00428F6D14FF04023596270470F4B43
S1132050032843F8201012D00428EBD148F6E0738B
S113206040F26C7203FB01F109139142EBDDDBE7F3
S113207040F24B714FF0402319627047704747F2AA
S1132080305303FB01F10913F4E700BF9C02002065
S113209004289ABF024B53F820000020704700BF69
S11320A09C0200202DE9F0478AB001250024564EF9
S11320B029465648FEF778FE29465548FEF774FE31
S11320C001A93046CDE901448DF80450CDF80B4008
S11320D0FFF746FB40F2DC530327F36104AA2146D1
S11320E03046CDE9044406948DF81670FFF766FB7C
S11320F040F2EE234FF004087363B36ADFF82491CF
S113210043F440332B43B362C9F88081F268234619
S11321102A43F260294642463846C9F80080FFF750
S11321207FF92346424638460221FFF779F92346D0
S11321302A4641460220FFF773F90222234610463D
S11321400521FFF76DF929463248FEF72DFE214699
S11321503148CDE90444ADF818408DF81250FFF72A
S1132160F3F804A98DF814004FF040208DF81140C5
S1132170FFF794F822460DEB08014FF0402001943C
S1132180FFF7CCF82A4621464FF04020FFF778F8B5
S11321904FF0402640F26C730DEB080133622A467F
S11321A03046FFF7BBF82A4629463046FFF768F861
S11321B040F6F503194F29467362194804AEFEF739
S11321C0F3FD0FCF0FC697E80300DFF85CA086E8A5
S11321D0030004A950468DF819508DF81B5008943B
S11321E0FEF7B2FC414650460522FEF7A5FC20222C
S11321F0C9F88021DAF80C302B43CAF80C30C9F83E
S113220000200AB0BDE8F0870000014000C20400CD
S11322100042040000B2040040420F00002F0000FE
S11322200072040000E100E00010004001220A4BAB
S11322300A480B499A6582610A6832B10422C3F8DC
S113224080200122044BDA6570470422DA670122F8
S1132250014BDA65704700BF006000400000014098
S1132260080F0C42054B1A69D20705D50420012238
S11322700349C1F880009A61704700BF0010004014
S11322800060004010B582B001211548FEF78CFDB6
S11322900123022218460921FFF7C2F80123022272
S11322A018460A21FFF7BCF80124092220461146EA
S11322B0CDE900440023FFF77FF80A22CDE900446A
S11322C0114620460023FFF777F84FF400710222ED
S11322D0044BC3F88011C3F8802102B010BD00BFC5
S11322E000C2040000E100E0064BD3F8142192057B
S11322F006D54FF400700121034AC3F81C01117084
S1132300704700BF00600040B0020020064BD3F8C5
S11323101421520506D54FF480600121034AC3F805
S11323201C011170704700BF00600040B102002022
S113233010B501211048FEF737FD01210F48FEF7C3
S113234033FD0023042219460220FFF769F8002315
S1132350042201210220FFF763F80221002308462A
S11323600422FFF75DF8BDE8104000230422032196
S11323700220FFF755B800BF4081040000C20400EA
S113238010B4022201200E4B0E495A6098610E4A85
S11323900B780E481468DBB240F823400B780C48E5
S11323A0DBB250F8234013689C4204D20B781268C5
S11323B0DBB240F823200122064B10BC1A70704790
S11323C000040140D8020020B4020020B80200201A
S11323D010000020D9020020064B074A53F8203091
S11323E052F82000A3EB930398422CBF0020012055
S11323F0704700BF10000020B80200202DE9F04112
S11324001C48FEF793FB00231B4C23702378072BF7
S11324102AD81A4F174EDFF87480194D06E0237836
S11324200133DBB223702378072B1DD82378FB5CA0
S1132430002BF4D021783046FEF76CFB00230122F8
S11324401049C8F824302B600B70C8F804200B78AE
S1132450002BE4D10C4A136923F00403136130BF49
S11324600B78002BF7D0DAE70248BDE8F041FEF71D
S113247057BB00BF00140040D8020020582F0000B2
S1132480B4020020D902002000ED00E00004014065
S1132490F0B587B04FF0106E4FF0640C01270026A2
S11324A0144D01AC0FCD0FC42B68134A23609168FF
S11324B0124B41F480719160516C114C41F4A46150
S11324C051642046C3F800E001A9C3F81CC0DF60D2
S11324D05E62FEF7FBFA4FF480632021094A136021
S11324E0236843F480332360E3683B43E360116073
S11324F007B0F0BD302F000000800C400004014004
S11325000014004000E100E008B5FFF7ABFE054B06
S11325101A69D20705D50121034A996113680B444E
S1132520136008BD00140040B4020020F0B48CB065
S1132530544E06AF04460D460FCE0FC796E803006F
S11325400DF1040C1C3687E803000FCEACE80F0035
S1132550029A4D4F4D49013A57F8223051F8222042
S11325601B02B3FBF2F33268039ECCF80020013E59
S113257057F8262051F82660772B4FEA0222B2FB47
S1132580F6F2079388BF7823049E8CBF404801204D
S1132590013E934288BF1346089257F8262051F80B
S11325A026604FEA0222B2FBF6F2059E88BF0220A3
S11325B0013E9A4238BF1346099257F8262051F833
S11325C026104FEA0222B2FBF1F238BF03209342F5
S11325D00A9251D82E4B984250D00CAB461E03EBB6
S11325E080030CAA02EB860153F8143C294A51F8E3
S11325F0181C02FB03F302FB01F244F62067264990
S113260003F51C1302F51C1203F58053A1FB03C34D
S113261002F580520DF1300CA1FB02210CEB80007D
S113262050F8180C9B08C0F58070B3FBF0F28908D1
S1132630B1FBF0F107FB06F6184B281B83FB06736E
S1132640A3EBE67313445B1AA3F59C7303FB00F33B
S1132650134AD81782FB03121344C0EB633020449F
S1132660A042B8BF20460122A842A8BF28460D4B6D
S11326701A700CB0F0BC70470420AEE70022094B7E
S11326801A70F6E7182F0000B8020020100000208E
S113269099D4FFFFF0D8FFFFABAAAAAAABAAAA2A33
S11326A0751FACDFDA0200202DE9F04186B000246A
S11326B0CDE90244CDE90444FFF70AFB10B906B0A2
S11326C0BDE8F08102A81021FFF708FB164D174E54
S11326D0DFF86480164F02E00134072C1DD003227A
S11326E002A955F8040F00F09CF90028F4D1202128
S11326F002A8347000F06CF901A90028ECD00A2279
S113270000F032FA019B1B78002BE5D10123013440
S1132710072CC8F800003B70E1D10122054B1A7068
S113272006B0BDE8F08100BF300000203200002078
S11327305000002030000020DC02002010B5354C91
S1132740FFF75CFE2378042B32D90520FFF744FE03
S113275020B106210122304B21701A702F4B1A78B8
S11327607AB12F4A1278052A06D8DFE802F0424AE5
S11327704A4A4A030422227001210020264A187082
S11327801170284B1A787AB1254A1278052A06D88E
S1132790DFE802F01E1E1E1E270300222270012104
S11327A000201D4A18701170BDE81040FFF77CBF6F
S11327B0FF210020FFF7BAFE1B4B1C491A78086062
S11327C0002AC2D001210020194A18701170BCE7F8
S11327D00121002022781870013222700E4A1170F3
S11327E0E2E705220121002022700B4A18701170C3
S11327F0DAE70522012100202270074A18701170BF
S1132800BFE70121002022781870013A2270024AA1
S11328101170B6E73200002030000020B002002022
S113282031000020B1020020DA020020DC02002086
S1132830500000202DE9F04188B03C4F3C4D3B78DE
S113284028786BB1042866D93A4E3378002B56D0D9
S1132850062858D8DFE800F02B2B2B2B2B1C1C0050
S1132860344E3378002BF3D10024334B06283470D4
S11328703C70187009D120463F210134FFF7C6FB94
S1132880052CF8D101232C70337008B0BDE8F08119
S11328902A4C54F82000FEF713F8FDF7E1FF2B78DB
S11328A0102154F82300FFF72BFA2878DCE7FFF710
S11328B0EFFB234C2B78DFF88480206058F823004A
S11328C0FDF7FEFF2068FDF7B5FD20686946FFF7B8
S11328D0B5FA2B7804A858F82310102200F0B3F8A6
S11328E004A81022174900F088F8694604A81022A9
S11328F000F083F804A81021FFF702FAD5E73B782B
S1132900002BA5D1B0E700230B4A33703B70107045
S113291008B0BDE8F0810A4B064E1968FFF776FB54
S113292033782878002B93D1E9E700BF50000020CA
S1132930320000203000002031000020340000204C
S1132940DC020020602F00000028B8BF404270471E
S113295008B5074B044613B10021AFF30080054BC3
S11329601868836A03B19847204600F035F900BF20
S113297000000000982F000070B500250C4E0D4C8F
S1132980A41BA410A54209D100F028F900250A4E81
S11329900A4CA41BA410A54205D170BD56F82530DD
S11329A098470135EEE756F8253098470135F2E7A8
S11329B024020020240200202402002028020020F7
S11329C003460244934200D1704703F8011BF9E720
S11329D0C9B2034610F8012B1AB18A42F9D118463C
S11329E07047002918BF0023F9E7034613F8012BA9
S11329F0002AFBD1181A01387047034630B51C78F9
S1132A005D1C44B912F1FF3204D311F8014B03F8F1
S1132A10014B14B930BD2B46F1E7002AF2D11A70EC
S1132A20F0E710B56AB10139841810F8013B11F8C8
S1132A30012F934203D1A04201D0002BF5D1981A63
S1132A4010BD1046FCE770B50446013902B970BDEB
S1132A50234611F8015F561E03F8015B2DB9144497
S1132A60A342F4D003F8015BFAE71C463246EDE7D3
S1132A702DE9F0478046894692461E460F463D465C
S1132A80089815F8014B00F085F82044437813F0BA
S1132A90080332D12D2C32D101227C78BD1C002EAA
S1132AA05DD0102E09D1302C07D12B7803F0DF0331
S1132AB0582B4FD110266C780235002A14BF4FF0E2
S1132AC000416FF000410027B1FBF6FC384606FBDD
S1132AD01C1EA4F13003092B17D81C46A64223DD83
S1132AE07B1C07D084451CD301D1A64519DB0127E3
S1132AF000FB064015F8014BEBE72F46BFE72B2CF4
S1132B0004BFBD1C7C781A46C9E7A4F14103192B04
S1132B1001D8373CE2E7A4F16103192B04D8573CF0
S1132B20DCE74FF0FF37E5E77B1C08D1222308469A
S1132B30C8F80030BAF1000F07D1BDE8F08702B140
S1132B404042BAF1000FF8D00FB105F1FF39CAF8CD
S1132B500090F2E73024002EAFD10826ADE7302CE8
S1132B60A3D00A26A9E70000084B37B51C68084D16
S1132B70236A002B08BF2B46009313460A460146DE
S1132B802046FFF775FF03B030BD00BF540000209E
S1132B90B8000020D0F8EC00704782B001B901A958
S1132BA042B14BB113780B601278101C18BF01208E
S1132BB002B070471046FBE76FF00100F8E749B137
S1132BC0FF2A8BBF8A230A700360012088BF4FF05D
S1132BD0FF30704708467047FEE700BFF8B500BFF6
S1132BE0F8BC08BC9E467047F8B500BFF8BC08BCEA
S1132BF09E46704703030100010302020203020020
S1132C0001010A0C0C0A0909090A0B0B0C0B0B0A2B
S1132C1003030100010302020203020001010E107A
S1132C20100E0D0D0D0E0F0F100F0F0E03030100EC
S1132C300103020202030200010112141412111111
S1132C4011121313141313120303010001030202DC
S1132C500203020001011618181615151516171788
S1132C6018171716030301000103020202030200EE
S1132C70010119060619070707191A1A061A1A195B
S1132C8003030100010302020203020001011B0409
S1132C90041B0505051B1C1C041C1C1B0303010051
S1132CA0010302020203020001011D02021D0303CB
S1132CB0031D1E1E021E1E1D030201000103021F2E
S1132CC01F1F1F20202003020100010302212121D4
S1132CD021232323030201000103022424242425A5
S1132CE0252503020100010302262626262727277D
S1132CF001020102030101000000000000000000C5
S1132D0000000001020304050607000000000C1186
S1132D10140D03030302020202030A0C09090C0A3C
S1132D200B0B03030302020203020E100D0D100F1E
S1132D300F0E0303030202020203121411111412F0
S1132D4013130303030202020302161815151817BE
S1132D5017160303030202020203190607070619E2
S1132D601A1A03030302020203021B040505041CCE
S1132D701C1B03030302020202031D020303021DC0
S1132D801E1E01000102020001010C0A09090C0BBC
S1132D900B0A0100010202000101100E0D0D100FBB
S1132DA00F0E01000102020001011412111114138B
S1132DB0131201000102020001011816151518175B
S1132DC01716010001020200010106190707061A7D
S1132DD01A190100010202000101041B0505041C6B
S1132DE01C1B0100010202000101021D0303021E5B
S1132DF01E1D0000000000118002000000000206F9
S1132E000000200039000F0000004015002040049D
S1132E10001000223F0006005B044F0466046D04AA
S1132E207D0407007F046F0400000000000A000016
S1132E3080200000FFFF7704790A3900B020790070
S1132E4071007D04760406000E00700A3800B60294
S1132E50B6083F0073043F08730C6D0401113E0073
S1132E6030223628802A6E040922390080080F0097
S1132E7001000800000158107C0458005E0458202A
S1132E8071040C0C740404000E00700C380054140B
S1132E9054045C04730467045004080C78001C0098
S1132EA010201428802A0C08482000003F00060047
S1132EB05B004F0066006D007D0007007F006F001F
S1132EC077007C0039005E0079007100400000004A
S1132ED001030800000000000000000005000000DD
S1132EE00000000080250000000000003031323373
S1132EF03435363738390000506F776572557000B5
S1132F0000000000070000000000070500000000AA
S1132F103D00000001000000FF000000FF00000071
S1132F20FF000000FF000000FF000000FF000000A1
S1132F300000000007000000070503003D0000003A
S1132F400100000000000000010000000200000079
S1132F500300000004000000010101010001000061
S1132F60200000007768697465000000616D626587
S1132F707200000072656400677265656E0000008F
S1132F80626C75650000000069646C6500000000F7
S1132F907374617274000000580000204300504FA5
S1132FA0534958002E0000202020202020202020DB
S1132FB028282828282020202020202020202020E5
S1132FC02020202020202088101010101010101015
S1132FD01010101010101004040404040404040459
S1132FE004101010101010104141414141410101E1
S1132FF001010101010101010101010101010101BD
S113300001011010101010104242424242420202CA
S1133010020202020202020202020202020202028C
S11330200202101010102000000000000000000038
S1133030000000000000000000000000000000008C
S1133040000000000000000000000000000000007C
S1133050000000000000000000000000000000006C
S1133060000000000000000000000000000000005C
S1133070000000000000000000000000000000004C
S1133080000000000000000000000000000000003C
S1133090000000000000000000000000000000002C
S10F30A000000000000000000000000020
S10B30AC50D0FF7F0100000079
S11330B4809FD5000048E801008000000100000062
S11330C401000000010000000100000001000000F4
S11330D401000000010000000100000001000000E4
S11330E401060600642F00006C2F0000742F0000FA
S11330F4782F0000802F0000882F0000902F0000FC
S1133104010000005800002000000000000000003E
S113311400000000000000000000000000000000A7
S11331240000000000000000000000000000000097
S11331340000000000000000000000000000000087
S11331440000000000000000000000000000000077
S11331540000000000000000000000000000000067
S11331640000000000000000430000000000000014
S11331740000000000000000000000000000000047
S113318400000000000000004300000000000000F4
S11331940000000000000000000000000000000027
S11331A400000000000000004300000000000000D4
S11331B40000000000000000000000000000000007
S11331C400000000000000004300000000000000B4
S11331D400000000000000000000000000000000E7
S11331E40000000000000000430000000000000094
S11331F400000000000000000000000000000000C7
S11332040000000000000000430000000000000073
S113321400000000000000000000000000000000A6
S11332240000000000000000430000000000000053
S11332340000000000000000000000000000000086
S11332440000000000000000BF2B00009B2B0000C6
S113325400000000A62F0000A42F0000A52F0000EA
S1133264A52F0000A52F0000A52F0000A52F000006
S1133274A52F0000A52F0000A52F0000A52F0000F6
S1133284FFFFFFFFFFFFFFFFFFFFFFFFFFFF000044
S113329401004153434949000000000000000000BC
S11332A40000000000000000000000000000000016
S11332B4000041534349490000000000000000009D
S11332C400000000000000000000000000000000F6
S10F32D400000000E1000000BD0000004C
S90301718A
